:020000040000fa
:080000000002040000000000f2
:020000040000fa
:10000800b6020000b6020000b6020000b602000008
:10001800b6020000b6020000b6020000b6020000f8
:10002800b6020000b6020000b6020000181a00006e
:10003800b6020000b6020000b6020000b6020000d8
:10004800b6020000b6020000b6020000b6020000c8
:10005800b6020000b6020000b6020000b6020000b8
:10006800b6020000b6020000b6020000b6020000a8
:10007800b6020000b6020000b6020000b602000098
:10008800b6020000b6020000b6020000b602000088
:10009800b6020000b6020000b6020000b602000078
:1000a800b6020000b6020000b6020000b602000068
:1000b800b6020000b6020000b6020000b602000058
:1000c800b6020000b6020000b6020000b602000048
:1000d800b6020000b6020000b6020000b602000038
:1000e800b6020000b6020000b6020000b602000028
:1000f800b6020000b6020000b6020000b602000018
:10010800b6020000b6020000b6020000b602000007
:10011800b6020000b6020000b6020000b6020000f7
:10012800b6020000b6020000b6020000b6020000e7
:10013800b6020000b6020000b6020000b6020000d7
:10014800b6020000b6020000b6020000b6020000c7
:10015800b6020000b6020000b6020000b6020000b7
:10016800b6020000b6020000b6020000b6020000a7
:10017800b6020000b6020000b6020000b602000097
:10018800b6020000b6020000b6020000b602000087
:10019800b6020000b6020000b6020000b602000077
:1001a800b6020000b6020000b6020000b602000067
:1001b800b6020000b6020000b6020000b602000057
:1001c800b6020000b6020000b6020000b602000047
:1001d800b6020000b6020000b6020000b602000037
:1001e800b6020000b6020000b6020000b602000027
:0801f800b6020000b60200008f
:020000040000fa
:10020800b6020000b6020000b6020000b602000006
:10021800b6020000b6020000b6020000b6020000f6
:10022800b6020000b6020000b6020000181a00006c
:10023800b6020000b6020000b6020000b6020000d6
:10024800b6020000b6020000b6020000b6020000c6
:10025800b6020000b6020000b6020000b6020000b6
:10026800b6020000b6020000b6020000b6020000a6
:10027800b6020000b6020000b6020000b602000096
:10028800b6020000b6020000b6020000b602000086
:10029800b6020000b6020000b6020000b602000076
:1002a800b6020000b6020000b6020000b602000066
:1002b800b6020000b6020000b6020000b602000056
:1002c800b6020000b6020000b6020000b602000046
:1002d800b6020000b6020000b6020000b602000036
:1002e800b6020000b6020000b6020000b602000026
:1002f800b6020000b6020000b6020000b602000016
:10030800b6020000b6020000b6020000b602000005
:10031800b6020000b6020000b6020000b6020000f5
:10032800b6020000b6020000b6020000b6020000e5
:10033800b6020000b6020000b6020000b6020000d5
:10034800b6020000b6020000b6020000b6020000c5
:10035800b6020000b6020000b6020000b6020000b5
:10036800b6020000b6020000b6020000b6020000a5
:10037800b6020000b6020000b6020000b602000095
:10038800b6020000b6020000b6020000b602000085
:10039800b6020000b6020000b6020000b602000075
:1003a800b6020000b6020000b6020000b602000065
:1003b800b6020000b6020000b6020000b602000055
:1003c800b6020000b6020000b6020000b602000045
:1003d800b6020000b6020000b6020000b602000035
:1003e800b6020000b6020000b6020000b602000025
:0803f800b6020000b60200008d
:020000040000fa
:100400006f9420000eff27000e01880000000000fe
:10041000000020000000e000020032000001200087
:10042000200288000c0007000001220001002000cb
:100430001f000700000020000000e0000200320062
:100440000000020000000000d017020000000000c1
:100450000040da000000fe004440a900a005200092
:100460000000e0000300320000002000a00188002e
:100470004440a80000000600f03fb1000180b10038
:1004800006003500ee03090000000000403fb10007
:100490000180b100fbff3d001000b000203fb00024
:1004a0000200350000800900000000000000060086
:1004b00091018800800078000000eb0015003700f3
:1004c000e280400032a0b4009101ba00e280400016
:1004d00032a0b4009102ba00e280400032a0b40021
:1004e0000002eb00472bde00f507b200602ce100b4
:1004f00004003a000059eb008301e900fdff3e00d3
:10050000040037006128e100010032000082eb00a6
:10051000040007001101ba000200e000e8ff3a0001
:10052000000006003159ba008301e9000c003200d6
:100530002159ba008301e900080032000400e000fc
:1005400003003a00e280400032a0b400f5ff37001b
:1005500011d9ba008301e900faff3a008100e800ee
:10056000e180400032a0b400000006000040da0044
:100570000000fe0000c0da00000006000a00fa00d9
:10058000e20f500022003e00244a8000e10f52009a
:100590000600320087232000462320002423200069
:1005a00005232000e08f530004003a00872220003a
:1005b00046222000242220000522200000002800de
:1005c0001500600003003a00800b78000700280047
:1005d000958a7300054020009482620001003a0071
:1005e00014a0a0008202780006003700940378006f
:1005f0000710b200fdff3200b103fb00070b7800cb
:100600008502e900e08f5200f8ff3a000800370049
:1006100034002000c0bf9f00e2bf9f00b4bf9f0016
:10062000d1bf9f006a805700d2ff07006fb99700c3
:10063000020078000080fa00000006006011b80097
:10064000fa003700f4ff2f002701370014002000c4
:100650002501370003f0a200889fbe008a9fbe00dc
:100660008c1f78003b010700420133006450e10019
:100670004f0032006420e1005200320003826c001f
:1006800007003b000905d0000306d000820f54008c
:100690000c065d000200390002003200890178007a
:1006a000030678008582550004003d000003fd002c
:1006b0008103fd008502ea008b854200840f7200f1
:1006c00002003b0060001000e08018006011b800dc
:1006d0000005eb007a28e1000a00390006007800e6
:1006e000c75ddd00f707b200878075002d00370079
:1006f000828171000a017800610560008180d1006b
:100700000080d3008502e900f9ff3b0006044000a9
:100710008784480002003b0060041400e0841c0051
:100720000988a300070032008a817100828171006c
:10073000610164008904d1000884d3008b05e800be
:10074000170037000978a30013003a000b00e000ff
:10075000130034008b05e9000804440089844c0030
:100760000a4474000978a3000d003a000b00e00071
:10077000070034008b05e9000804440089844c001c
:1007800001003a000b0020000978a300f7ff3200b7
:100790000001eb0002003700828171000a0178003d
:1007a000040107000cf0a70001f0a000fa003700d8
:1007b0006420e10002003a00838f6c00fa003300ed
:1007c0000801be000200be00f3003700889fbe0093
:1007d0008a9fbe008c1f7800de000700e500330012
:1007e00003866c006450e1002e0032006420e100ba
:1007f000330032006150e1002f0032006120e1003f
:100800003100320085855500eb07b000090020005b
:1008100008042000050037000804440089844c00c7
:100820000a0031000603430087834b000001530098
:1008300081815b00f8ff33000203be000800a000c6
:100840000804440089844c00f6ff3900c639dd00f5
:100850008301730001003200130020008904d100dd
:100860000884d3000998a300050032000800a700ff
:100870000300a0008904d1000884d3008b05e800a0
:100880008904d1000884d3000001eb000281d2006a
:10089000c800070001f0a1000cf0a70001f0a000c3
:1008a000bd0037006420e100bf0032000801be0037
:1008b0000200be00f7ff37006120e100ba003200fd
:1008c0006000b800f3ff37000000200001f82700a7
:1008d000f0ff3700889fbe008a9fbe008c1f780003
:1008e0009c000700a300330003866c006450e10005
:1008f000240032006420e100270032006150e10052
:10090000220032006120e100210032008b8542008c
:10091000eb07b1000134b800003ab8000804420007
:1009200089844a00013ab8000030b800888040004d
:1009300009014a00040033000000400081804800a3
:10094000020149008b05e900c909dd00830170003f
:100950000100320013002000c814de004814dd003e
:100960004709de001200b200c808de0008847000eb
:100970009000070001f0a1000cf0a70001f0a0001a
:10098000850037006120e100870032000801be00c9
:100990000200be00f7ff37006150e100fcff3a00a3
:1009a000810037000001be00a80007000470a70006
:1009b00003f0a10003f8a30013003a006509b10099
:1009c00010003200090035006928e10002003500fe
:1009d0000100280000000500000040008180480060
:1009e0008502e900fcff3a0000000600f88f420093
:1009f000050035008100d1000080d3008502e800a9
:100a0000fcff3a00000006008000eb00000005003b
:100a10000081eb00a20037000001eb00a0003700ce
:100a20004f89de008201780006013700889fbe00f2
:100a30008a9fbe000082700004027100048271006f
:100a4000260032000004be000200be006011b800a3
:100a50006b092000950220000182cf000a003900b6
:100a60000541b1000082cf00070039000541b10007
:100a70000982cf00040039000541b1000882cf008f
:100a8000010039000541b100054252001200320058
:100a90000a003b0082817100610164008100d10085
:100aa0000080d3008984d3000884d3008b05e8003c
:100ab0000442e800f7ff3a0007003700080444004a
:100ac00089844c0000004800818048008b05e900c3
:100ad0000442e900f9ff3a00360007004f05be0066
:100ae0004f04be0000000600889fbe008a9fbe0023
:100af000841f7800170007004f00780011003300b2
:100b0000f0ff2f00838f6c0006003b00040565009a
:100b10000a00a7000800370009f0a6001000200016
:100b200008003700820f5400838f5c0003003900f7
:100b30001000200001003e000000200009f0a70086
:100b40000000ea004f05be004f04be000000e000b8
:100b5000000006000004be003c0007000003be00c9
:100b60000405be000200be0038000700844f750077
:100b7000000006000200be006450e10005003600df
:100b80006420e100020036000968a30001003a0079
:100b90000800be000160a0004f0678004f05be00af
:100ba0004f04be0000000600f0ff2f00f1ff2700f9
:100bb000f9ff370081002000618055000b003d00e7
:100bc0000b00200061fe2f000100e1001d00340039
:100bd00082817100610164008904d1000884d3001e
:100be0000000e800faff3a00710020006100640094
:100bf000030070000200600009003200610444003c
:100c0000e0844c000988a500050032008b05e8004f
:100c10006808e10002003a008904d1000884d3008a
:100c2000f20f20000258e10005003d00c75ddd0025
:100c3000f907b200898075000800780000000600fe
:100c40000bf827008b00780000000500c70ade00c3
:100c5000f107b200f50fb20008003200e1cf420008
:100c6000020032000170a00024000500810f700016
:100c7000010032000408050044000500810f7000e7
:100c800002003a00140005008502e900000040005f
:100c900081c04800fcff3b000170a000240005005b
:100ca000889fbe008a9fbe008c9fbe008205780090
:100cb0000004be00e5ff07000800be006420e1005c
:100cc0000700390002003a00f1ff2700f0ff2f0073
:100cd0000160a00012022000624288005500370027
:100ce0006120e10003003a000b00a70001f8230097
:100cf0005000370001f0a10002002100936424009d
:100d000052fe07000800be0004003500b2fd2000be
:100d1000930c24005b0007000004be000005eb00fc
:100d20000b00a6004f0dde0001f0a1000004be0084
:100d300032982f0023ea2300e6fe07000001eb00b3
:100d400003f023000b00a70003f8230042fe070076
:100d50004e0007000000a7000a00a20030ff0700b5
:100d60000b00e000030032000200200003f023002b
:100d700038fe070001f0a2000006be0002002000bd
:100d800093042400d3fe07000801be0032fe0700d2
:100d9000809fbe000c00be0022a22a00d3a7230021
:100da000ccfe07004f01be002bfe07000004be0072
:100db00001f0a100020020000398230023fe070099
:100dc0000800be00190035000001be00c1fe07008a
:100dd0000006be00b2c52900e3622300bdfe070085
:100de00022222b00f3942b001bfe07000c01be00f7
:100df000b8fe0700e273280083c0230016fe070038
:100e00000c01be00b3fe070042aa2a00a3e22b0099
:100e100011fe07000c01be00aefe07000801be0077
:100e2000acfe07000801be000bfe07000a00a70089
:100e300001f0a2004f06be004f05be004f04be00e9
:100e400000000600881f7800030478000300e0001b
:100e500007003d0060001000e080180060011900ec
:100e6000e081190002003b0001f02d000300370073
:100e7000eefe070008f0a70001f0a0004f04780084
:100e80000000060004002000210037000001be0021
:100e90006eff07000470a70003f0a1006509b10010
:100ea000160032000d0035006828e100060035000c
:100eb000f0ff2f00f1ff27000300e00013003b00cc
:100ec000010028000000050000004000818048006b
:100ed0008502e900fcff3a0008003700f88f420065
:100ee00002003c008000eb00000005008100d10002
:100ef0000080d3008502e800fcff3a000300e00018
:100f000002003b0060001000e080180000000600b6
:100f1000889fbe008a9fbe008c1f78004f26dd0090
:100f20000cff070013ff33006120e1004300320093
:100f30006250e10041003e003e0039006420e100c3
:100f40003c003200058255000f003b000402e8001f
:100f500038003a00800f5300818f5b003500340069
:100f60000800be0003f0a10001f0a60003f0a000fd
:100f70000cf0a700b8fd070007ff37000603430089
:100f800087834b000c4646000005530081855b00bb
:100f9000020033000a03be000c00a0000402e900b6
:100fa000f6ff3b00850578000602430087824b0070
:100fb00004003a006000b80009f0a70001f0a000aa
:100fc000f5fe37000002520081825a000704e0005b
:100fd000040033000603430087834b008b05e900c0
:100fe000faff3700090578000604be000203be00c0
:100ff0006011b800effe0700e00f5200e08f5a00ca
:101000000700350002003c000c08a3000400320079
:101010000601be0003f0a0000cf0a7008efd070043
:101020000a85680001f0a1000af0a70001f0a00005
:10103000d9fe37000800be00d7fe3700100220009e
:101040000cf0a60060428800d7fe3700889fbe00e3
:101050008a9fbe003004be002005be000404440088
:1010600085844c0006054d0087854d000898be001c
:101070000a90be000440e10005c8e10006d0e1008e
:1010800007d8e10002003100680040001008e800c5
:101090004f05be004f04be00000006001000fa001d
:1010a000889fbe008a9fbe00110020000605be007a
:1010b0000404be003002be002003be00c4b79f007f
:1010c000d5b79f00e6b79f00f7b79f000802520010
:1010d00089825a000a035b008b835b0084bf9f00f8
:1010e00095bf9f00a6bf9f00b7bf9f000498be009a
:1010f0000698be004fb29700dfb297006fb397001b
:10110000ffb39700b0000700010039008000eb003a
:101110004f05be00108810004f04be000080fa008a
:10112000000006001400fa00889fbe008a9fbe00df
:101130008c9fbe000006eb0079000700ccb79f0033
:10114000bcb79f00acb79f009cb79f008cb79f00b7
:101150000605be000404be000d0420004fb3970036
:10116000bfb29700860343002fb29700e00f5300f1
:1011700004003d00990007000f004000b3ff070086
:1011800003003700950007000f004000c3ff070071
:10119000cfb2970095bf9f00e08f52000900350045
:1011a0006600070014002000050020006033b8002e
:1011b000000072008180720002017300838173005d
:1011c000570007000c06e8008d0f5600e3ff3a00b9
:1011d0001fba9700e00f520005003d000802be0054
:1011e0000a03be0000fe2f000f00400097ff07001b
:1011f0004faa9700e00f520008003a000fb4970082
:101200009fb497002fb59700bfb59700d8b79f0040
:10121000e9b79f00fab79f008bbf9f004700070008
:101220004f06be004f05be004f04be000080fa000e
:1012300000000600881f780018002000881f780032
:10124000b8ff07008f87e9004f0478000000060010
:10125000801feb00b3ff07008f87e9000000060046
:10126000889fbe008a9fbe004100070008003d0025
:101270007a0007004300070018002000460007001e
:1012800008003d002f0007000004eb0005003700b8
:101290000004eb004000070002003d0029000700a9
:1012a00018002000e3ff0700e00f540001003200a7
:1012b0003e0007004f05be004f04be0000000600c0
:1012c000889fbe008a9fbe008c1f78002800070000
:1012d00006003d00610007001c00200029000700f7
:1012e0003900070006003d00040037000006eb004f
:1012f0002900070002003d00580007001200070007
:10130000d3ff0700e00f560001003200270007005e
:101310004f0678004f05be004f04be0000000600d7
:10132000010007000000060090b79f00a1b79f00d2
:10133000b2b79f00c3b79f00000006000700070078
:1013400000000600450007000402540085825c008e
:1013500006035d0087835d00000006001fb0970054
:10136000afb097003fb19700cfb1970000000600e3
:10137000e00f5000e08f5800e00f5900e08f590057
:10138000000006000000540081805c0002015d0046
:1013900083815d0000000600e00f5200e08f5a00dc
:1013a000e00f5b00e08f5b00000006006022b800e9
:1013b0006033b8000000520081805a0002015b00d7
:1013c00083815b00000006000820e10009a8e1001d
:1013d0000ab0e1000bb8e100000006004f2bde0070
:1013e000deff070086837300858242004f23de0004
:1013f000a7b79f00868272000402420095b79f0043
:10140000ffaa97004f2bde00858242000602720081
:1014100084b79f006faa97004f23de0004024200aa
:1014200086827200f5af9f004f18de000002720046
:10143000caff0700e4af9f00000040008180480021
:1014400002014900838149000802be000a03be0070
:10145000b5ff070000fe2f00000006006044b80042
:101460006055b80000000600889fbe008a9fbe003d
:101470008c1f78000006eb00e00f5000e08f580052
:10148000e00f5900e08f590007003d006044b800ac
:101490006055b8001c0020000000540081805c00f2
:1014a00002015d0083815d00e00f5200e08f5a0071
:1014b000e00f5b00e08f5b0007003d006044b80078
:1014c0006055b8000c00a2000402540085825c0044
:1014d00006035d0087835d0022000700e00f5600d1
:1014e000060032006022b8006033b80000005200ed
:1014f00081805a0002015b0083815b004f06780007
:101500004f05be004f04be00000006006022b80078
:10151000060220000000d0008180d2000482d200a8
:101520008582d2000000a0000202520083825a008d
:10153000030031000202420083824a000000a10041
:101540000603e900f3ff3a0000000600020ab900b2
:10155000001bb9000200b800810042008100430076
:1015600000000600889fbe008a9fbe008c9fbe00c0
:101570000404b8000506b8008904460060854e00e2
:101580000606b8000a054600e0854e000706b800ca
:101590008b054600040eb800890446000a854e00fb
:1015a000e0854d00050eb8000a0546008b854e000b
:1015b000060eb8008b0546000416b8000a05460062
:1015c0008b854e000516b8008b054600041eb8003a
:1015d0008b0546000800be000a01be004f06be0093
:1015e0004f05be004f04be000000060042118800f7
:1015f00000118800111188000000060040922000b0
:101600000000fa0068815700cfb897002c0007004f
:101610000080fa0000000600881f780000047800af
:1016200038009000000278001420b200e10f520050
:1016300005003a000002eb00140498002802900014
:10164000040c780019003700800278002420200064
:101650002520b2000000eb00848f520016003a00f3
:10166000a8009000808f50001300320018019000f5
:10167000800f51001000320048009000bffb0700af
:1016800018029000840f50000300320038029000ce
:101690000403b30034049800380090000002eb000b
:1016a0001404980028029000040c78000002b20094
:1016b000010032000080eb004f04780000000600bb
:1016c000ef03b000889fbe008a9fbe008c9fbe00c3
:1016d000800678008e1f78000007eb00d1af9f00d6
:1016e000a2b79f0066033700dfa8970054c2b3007b
:1016f0008100e800d1af9f00844f500006003a00ff
:10170000010278000006eb0001c3b30000c2b30081
:10171000b7c2b3000e0037003d0290000404b200cf
:10172000040032001d027800004a7800840ee800b0
:10173000050037000000fb008d0078005c03070007
:10174000e10f40004e0332000e07e8004c03370063
:1017500084027800d2c2b30034437800824f530031
:101760000900320005003c00804f530008003200a1
:10177000874f53000c003a0007003700814f530099
:1017800009003a00060037000c30a000f0ff3700d7
:101790000c00a000eeff37000c10a000ecff37009b
:1017a0000c20a000eaff3700620266000100320050
:1017b0000c00a10068026600010032000c20a100ac
:1017c0000602fb000403b100e90f52000c003e00ca
:1017d000050378000002eb00b603fb006a22b900a3
:1017e0000703b10086027800048243009603fb00e1
:1017f0000703b100e98f5300f7ff360008003700f8
:101800000002eb00a7c2b300874f530004003a0068
:10181000afb197008502e80043027800a3b79f00ac
:101820000003eb0096b79f00e6c2b300954f13008c
:101830000c003a000ce0a00064435300d54f1300a5
:1018400003003200050378000000eb0009003700b8
:10185000afb397008502e80047047800a7b79f0060
:1018600098b79f0005037800090037006a00b900a7
:101870000080430086027800b603fb000703b10036
:10188000e98f5300f9ff360090b79f00f5ff37004e
:10189000b6427800cac6b300d6af9f008acf5200c6
:1018a000250032000f003c0036c6b30086cf520040
:1018b0009e00320004003c00e0cf5200f5023200ee
:1018c0006b4353000f00370046c6b30086cf52006b
:1018d000170032006543430086cf5200b2003a0041
:1018e0001300370036c7b30086cf52001f00320006
:1018f00007003c006443530086cf520014003200be
:101900000643e80086cf5200a7003a0013003700d4
:1019100056c7b30086cf5200aa003200634343008b
:1019200086cf5200a0003a00e5779f000d003700f7
:10193000e5779f00a5003700f00366000501200051
:1019400001003200050028000c867200d0ff37002d
:10195000e5779f000c60a0009c003700e5779f00b2
:101960000c50a0000c70a00098003700afb5970095
:10197000e5779f00cb027800abb79f00b5b79f001b
:10198000e08f520002003a0001912000b1b79f00a1
:101990003fb397008002eb00010037008502e800aa
:1019a000e6c37a00e0cf5300fcff3a00c5b79f00c2
:1019b0001fb19700e00f510005003200cfb1970032
:1019c000830f51000200310082027800c5b79f00ea
:1019d000cfb297000004eb00850f520001003600e3
:1019e000050452006806660009c2b3000f00320009
:1019f000290037003d0290000404b20004003200c8
:101a00001d027800094a7800840ee80005003700be
:101a10008d00780000022000a5020700e10f4000c1
:101a2000010032000e07e8000804e900e00f54004e
:101a3000f0ff3a000084eb0017003700bd02900071
:101a40000504b20009003200880278009d03780086
:101a500035437800864b780005047800870ee8004f
:101a6000e04f53000a003a00110037008802780066
:101a70008d0078003500fb0084bf9f0005047800ce
:101a80008b0207000fba9700e10f400008003200f8
:101a90000e07e800060037000c0278000806780000
:101aa0003fb49700cfb497005fb59700efb59700ac
:101ab000890278008504e900e08f5200dfff3a00d8
:101ac000b8b79f00c9b79f00dab79f00ebb79f0078
:101ad0000c04780009c2b30004067800e00f560039
:101ae0000f003a00660237003d0290000404b20085
:101af000040032001d027800094a7800840ee800d4
:101b0000050037008d007800000220006802070001
:101b1000e10f4000010032000e07e8000804e90070
:101b2000e00f5400f0ff3a0055023700afb09700c5
:101b30007003660041047800a1b79f00cfc4de00a7
:101b4000090578008a0578000800be000a01be0079
:101b50004800de00c80add0000807200e0779f00c8
:101b6000e00f530009003200e04f50000700320040
:101b7000e14f40000500320026002000f0779f0072
:101b8000887f9f00c6b79f00030037001700200022
:101b9000c7b79f00f8779f0078fb2f0008844700a5
:101ba000b8b79f0082ff370069fb2f001a002000a2
:101bb00089844700e5779f00b9b79f00cab79f00a7
:101bc0007bff3700e5779f000c0cb3008c02780098
:101bd000050cb2003b003a00e00f560005003d0046
:101be000afb297004501be004500be00a5b79f00fb
:101bf0000f003700f0026600120032002fb4970089
:101c00004803be00f69f9f0087a79f00a8b79f00cc
:101c100098029000cfaade0095a79f00a5a79f007d
:101c20007f9897008fa097001fa19700afa1970002
:101c3000b0b79f00c1b79f00d2b79f00e3b79f0026
:101c40000b003700afb09700c102780005047800a0
:101c5000cfc4de00090578008a057800a1b79f008f
:101c6000b8b79f00c9b79f00dab79f00ebb79f00d6
:101c70003fb09700cfb097005fb19700efb19700ea
:101c8000e00f5000e08f5800e00f5900e08f59003e
:101c900032003d006000b8006011b8003fb497000a
:101ca000cfb497005fb59700efb597003c00b30045
:101cb00008045000898458000a0559008b85590092
:101cc00022003700e00f560005003d00afb297003c
:101cd0004501be004500be00a5b79f000f003700bc
:101ce000f0026600120032002fb497008004eb006f
:101cf0004803be000005eb0096af9f00a7af9f0012
:101d0000b9af9f00caaf9f001fa89700afa8970068
:101d10003fa99700cfa99700a8b79f00b0b79f0031
:101d2000c1b79f00d2b79f00e3b79f000b003700f9
:101d3000afb09700c1027800a1b79f0005047800fa
:101d4000090020000a0020000b002000b8b79f0007
:101d5000c9b79f00dab79f00ebb79f009fb4970009
:101d6000e08f54000d003a001a0020003fb09700a9
:101d7000cfb097005fb19700efb197009ab79f007f
:101d8000e00f5000e08f5800e00f5900e08f59003d
:101d9000020032008000eb0091b79f000c01780038
:101da00005042000020cb20082b79f00850f51008d
:101db0003400320003003c00e00f51000800320004
:101dc00048003700050820008fb19700858f51002b
:101dd00014003200050c2000858f510041003a00ac
:101de0006685200015c0b3003600be003601be0077
:101df0003fb49700cfb497005fb59700efb5970059
:101e00000040e10001c8e10002d0e10003d8e10098
:101e1000330039008542e800f4cf5200f2ff3a0067
:101e20002f00370015c0b300000120000100200082
:101e30006011b8003fb49700cfb497005fb597002a
:101e4000efb597000040e10001c8e10002d0e100d9
:101e500003d8e10022003900490020000000d00032
:101e60008180d2000281d2008381d2008904e900fe
:101e7000faff3a008542e800f0cf5200edff3a0049
:101e80001700370015c0b3008000200001002000bb
:101e90006011b8003fb49700cfb497005fb59700ca
:101ea000efb597000040e10001c8e10002d0e10079
:101eb00003d8e1000a003900390020000000d000fa
:101ec0008180d2000281d2008381d2008904e9009e
:101ed000faff3a008542e800f5cf5200edff3a00e4
:101ee000e5779f006f7597009fb597008a02fb000a
:101ef0008b8f520002003d00eb779f0004003700fb
:101f00001fb09700850f500001003d0095b79f005e
:101f1000e00f520003003200e302660001003200cd
:101f20000402e90005002400850266000600320074
:101f30009fb09700810f520002003400010252004e
:101f4000010037000002eb006f7197008001eb0089
:101f50008202fb00f3af9f00850f520002003400a5
:101f600085025200f5af9f00640266003b0032001c
:101f7000e202660061026600e08f5200110032004a
:101f8000bd0290000504b200080032009d027800f6
:101f9000b6c2b300e00f52000100320006c3e800f1
:101fa000864a7800850ee80015003700b002200050
:101fb000e00f5200010032000080e8008d00780040
:101fc0000c003700e00f52000e0032003d0290007e
:101fd0000404b200050032001d02780005c2b300ff
:101fe000054a7800840ee800050037008d0078006f
:101ff000000220002e010700e10f40000100320026
:102000000e07e8007faa9700e00f52004f00320051
:1020100008c3b300840478003d0290000404b200b9
:10202000040032001d027800084a7800840ee8009f
:10203000050037008d007800000320001c01070018
:10204000e10f4000010032000e07e8008904e900ba
:10205000f1ff3a00f9af9f003c003700ffaa97005c
:10206000e08f5200140032006802660012003a004d
:1020700008c2b300850478003d0290000404b20059
:10208000040032001d027800084a7800840ee8003f
:10209000050037008d0078000002200004010700d1
:1020a000e10f4000010032000e07e8008904e9005a
:1020b000f1ff3a00f9af9f00e2026600610266009c
:1020c000e08f520011003200bd0290000504b20002
:1020d000080032009d027800b6c2b300e00f520043
:1020e0000100320006c3e800864a7800850ee80049
:1020f00015003700b0022000e00f5200010032004e
:102100000080e8008d0078000c003700e00f5200de
:102110000e0032003d0290000404b20005003200bf
:102120001d02780005c2b300054a7800840ee8005d
:10213000050037008d00780000022000dc00070059
:10214000e10f4000010032000e07e8001fb39700c6
:10215000e58420000602e900f0046600c223dd00e9
:102160000c057800c7a79f000a02b2006323b900dc
:10217000e99f9f00060478004322dd00b8a79f0076
:1021800085024200da9f9f00e5af9f00a300370061
:102190009fb597000fb097008b05e9000104200060
:1021a0009bb79f00810f50007300320003003c007a
:1021b000e00f5000080032007e00370004082000c5
:1021c0000fb19700840f510056003200040c20001c
:1021d000840f510077003a00e00f56001f003d00c9
:1021e000efa997003304be002305be003fb097005f
:1021f000cfb097005fb19700efb197000802be0023
:102200000a03be000bfc07000802be000a03be0062
:10221000e0779f000000fb00cf80de000101780026
:102220008201780090fc07003fb29700cfb2970080
:102230005fb39700efb397000002520081825a000b
:1022400002035b0083835b00b4b79f00c5b79f00a8
:10225000d6b79f00e7b79f002e003700ef9a970090
:10226000e08f5200220032006fab97003fb2970020
:10227000cfb297003604be002605be000400be00a3
:102280000801be0084bf9f00f5b79f000005eb006a
:102290009efc07000801be00e0779f000000fb00e5
:1022a000cf80de00a9fc07000fba9700ffb29700ad
:1022b0008aaf9f000004520081845a00d8a79f0073
:1022c000e9a79f008004eb00f9a79f005fa097009b
:1022d000efa097007fa197008fa99700b0b79f004c
:1022e000c1b79f00d2b79f00e3b79f000900370036
:1022f000efa897003fb19700110278001100090084
:102300000481d800a4002000110009000480d80036
:10231000e1779f00ef7197000343b000e3779f00e0
:1023200024003700f48f2000df9a9700e08f5200de
:1023300001003200e48e20003fb09700cfb097003c
:102340005fb19700efb197004fa397000603e90034
:10235000050033008301d1000281d3008180d300c6
:102360000080d300f9ff37006f0060006440780000
:10237000e0779f000f0037003fb29700cfb2970081
:102380005fb39700efb397003fa497000804e900fc
:10239000050033008703d1000683d3008582d30074
:1023a0000482d300f9ff3700674262000443b000a3
:1023b000e4779f003d0290000404b2000700320061
:1023c0009d0278006f729700844a7800850ee800bd
:1023d000e04f520007003a0007003700ef74970003
:1023e0008d0078000900fb0031000700e10f40007c
:1023f000010032000e07e8004fa59700bfa5970027
:102400006fa8970064055500e385550068005000eb
:10241000caa79f00bba79f00e0af9f009fb0970097
:10242000e08f50005aff3a00680666001400320040
:102430007fa99700e00f51001100340008c2b300db
:10244000820478003d0290000404b20004003200cf
:102450001d027800084a7800840ee8000500370065
:102460008d0078000002200011000700e10f4000fd
:10247000010032000e07e8008904e900f1ff3a008c
:10248000dfa9970013407800e0779f00e04f5000ed
:1024900095fc3a000e0078004f0778004f06be000a
:1024a0004f05be004f04be00ef03b1000000060060
:1024b000889fbe00010478008084eb003802900001
:1024c000e20262003b0032000403780098029000b0
:1024d0000620b20002003a00e08f520035003a00b8
:1024e0000490a0008004780034049800f90fb20032
:1024f000e08f520002003a00a8029000050c78001c
:10250000ea8f540005003a000408b20003003a00c4
:1025100088007800d0002000e5ff07001802900036
:10252000d8029000850f52000b0032000402e80030
:1025300015c0b3001404980018027800094a780006
:10254000040ce800e4932000054a7800ea8f540068
:1025500018003a000500370009407800880078002c
:10256000170007008004780012003700380290003e
:102570000410b2000f00320018019000a800900073
:1025800048009000fdf7070018029000840f5000eb
:1025900004003200380290000403b30034049800b1
:1025a0008084eb000002eb001404980028029000e5
:1025b000040c7800090078004f04be0000000600fb
:1025c0000200fa00889fbe0001047800a0ff9f006f
:1025d00038029000840278000504b2000200320044
:1025e0000000fb0035003700e202620005003a00ff
:1025f0000403b30015049800340498000080eb0035
:102600002e003700d8049000e08f540006003a00f6
:1026100012002000e680570048009000d7f707001e
:102620001904980023003700a8029000e08f5200a0
:1026300008003a00259420000430a00025049800ea
:10264000050c7800340498002500200055049800fb
:102650001504980018019000a80090004800900010
:10266000c6f70700280290008082eb00150498004e
:10267000affa9700054a7800040ce8002ffa97009b
:10268000ea4f52000b003a00380290000410b200ea
:102690000800320018019000a80090004800900047
:1026a000b6f707000002eb00a8029000140498009f
:1026b000050c78002ffa97000400fb004f04be00c1
:0826c0000080fa000000060092
:020000040000fa
:1026c80066660000a63f00000000000000bf000092
:1026d800cdcc00004c3d00009a990000193e000046
:1026e800cdcc00004cbe000000000000003f000000
:1026f80020200000202000002020000020000000f2
:1027080025640000002d00002d200000426100001b
:102718006c6c0000207000006f730000697400008a
:10272800696f00006e3a0000202d00002d000000a7
:102738005866000028740000293d00002575000037
:102748000025000034640000206400005f6d000074
:1027580069730000736500007321000021210000e7
:1027680000510000454900003a20000025350000ce
:0427780075000000e8
:020000040000fa
:10277c001200fa00889fbe0060079800710798004d
:10278c00020f98000e0a9000050020000400be0005
:10279c00a7f707000002be00048fbe006e02900077
:1027ac00050020000400be00a1f707000002be00d7
:1027bc0024079800350798007e0290000500200041
:1027cc000400be009af707000002be004407980000
:1027dc005507980018c0b3002e019000be01900060
:1027ec001e00be0094f7070000027800e00f5200b4
:1027fc0001003d000044eb00e04f540003003200a8
:10280c0064662600650024002800370018c0b30059
:10281c004e019000de0190001e00be0088f70700fc
:10282c0000027800e00f5200010034000044eb007d
:10283c00e04f5400030032006466260065f6230066
:10284c001a0037004e019000de0190001e00be0001
:10285c007df707000002be000404be004e0190008c
:10286c00de0190002e009000be00900076f707006d
:10287c000002be000401be000800be00d0f7070035
:10288c000002be00a299290093f923000400be00a7
:10289c000df807000002be006266260063f62300f6
:1028ac000400be0069f707000002be000400be0071
:1028bc004f04be000080fa00000006000a00fa0077
:1028cc00889fbe00300798004107980080c1b30074
:1028dc00bb0307000040eb009503070090c1b30059
:1028ec00b703070000c1b30091030700c4372900e8
:1028fc00841f78003efb07008f87e9004092200080
:10290c0042fb070080c1b300ad0307000040eb00a1
:10291c008703070090c1b300a903070000c1b300ef
:10292c00830307003e009000ce0090001af80700c9
:10293c000002be00040f78001e0278000500200083
:10294c000400be003af707000004be0004408000fb
:10295c00050020000400be0035f707000002be0091
:10296c000401be000800be0037f707000002be00dd
:10297c000403be00249b8400359b84000401be002c
:10298c000600be00d0f707000002be000404be0023
:10299c001e027800050020000400be0024f707008a
:1029ac000002be0002002000e35324000400be001d
:1029bc0025f707000002be000401be000800be009f
:1029cc0021f707000002be000400be00f2f707006a
:1029dc000002be00040278004440880004408000dd
:1029ec00050020000400be0011f707000004be0023
:1029fc00a4408000050020000400be000cf7070076
:102a0c000002be000401be000800be000ef7070065
:102a1c000002be00d2cc2c00c3d423000400be00a4
:102a2c0067f707000002be000403be00449b84004d
:102a3c00559b84000401be000600be00a2f70700ef
:102a4c000002be00c4408800d5408800c44080000d
:102a5c00d54080000400be00cff707000002be0086
:102a6c000402780064408800044080009e027800d4
:102a7c00848f52001a003200044080009e0f5200d6
:102a8c000a0036004641800057418000649b840058
:102a9c00759b84000401be000600be00eaf6070028
:102aac000002be004441880055418800044080006b
:102abc009e0f52000a0031004641800057418000b1
:102acc00649b8400759b84000401be000600be005c
:102adc00def607000002be00444188005541880024
:102aec0044408000050020000400be00d0f6070022
:102afc000003be00c4408000d54080000401be002d
:102b0c000600be00d1f607000002be0018c0b300dc
:102b1c006011b8000400be00c7f607000002780080
:102b2c00e00f520001003d000044eb00e04f540068
:102b3c001800320044408000050020000400be0054
:102b4c00bbf607000003be00c4408000d5408000e7
:102b5c000401be000600be00bcf607000002be0069
:102b6c000403be0044418000554180000401be00b6
:102b7c000600be00b5f607000002be000400be0051
:102b8c0085f707000002be0004027800244188008b
:102b9c001000370044408000050020000400be00f7
:102bac00a3f607000003be0044418000554180009d
:102bbc000401be000600be00a4f607000002be0021
:102bcc000400be0074f707000002be000402780087
:102bdc002441880024418000040178008000eb002f
:102bec0020ad2000e2fe07000002be000401be0082
:102bfc000040eb00ab05070014408000841f7800f8
:102c0c0044382900841f780079fa0700e4875700bc
:102c1c00409220007dfa070004408000a440880008
:102c2c001e029000ae0290000400be004f04be00d5
:102c3c000080fa00000006000a00fa00889fbe001f
:102c4c0030079800410798003e009000ce0090009d
:102c5c0051f707000002be00040f78001e02780036
:102c6c00050020000400be0071f607000004be0041
:102c7c0014408000050020000400be006cf6070024
:102c8c000002be000401be000800be006ef6070084
:102c9c000002be000403be00849b8400959b84004c
:102cac000401be000600be0007f707000002be00cc
:102cbc000404be001e027800050020000400be00c3
:102ccc005bf607000002be0002002a0053522400eb
:102cdc000400be005cf607000002be000401be004a
:102cec000800be0058f607000002be000400be003b
:102cfc0029f707000002be00040278005440880047
:102d0c0014408000050020000400be0048f60700b7
:102d1c000004be00b4408000050020000400be008a
:102d2c0043f607000002be000401be000800be000e
:102d3c0045f607000002be00d2cc2c00c3d4230001
:102d4c000400be009ef607000002be000403be0095
:102d5c00a49b8400b59b84000401be000600be0049
:102d6c00d9f607000002be00e4408800f540880058
:102d7c00e4408000f54080000400be0006f7070028
:102d8c000002be00040278007440880014408000e9
:102d9c009e027800848f52001a003200144080008a
:102dac009e0f52000a003600664180007741800079
:102dbc00c49b8400d59b84000401be000600be00a9
:102dcc0021f607000002be006441880075418800ae
:102ddc00144080009e0f52000a00310066418000b2
:102dec0077418000c49b8400d59b84000401be0005
:102dfc000600be0015f607000002be006441880004
:102e0c007541880054408000050020000400be007d
:102e1c0007f607000003be00e4408000f540800088
:102e2c000401be000600be0008f607000002be004a
:102e3c0018c0b3006011b8000400be00fef5070016
:102e4c0000027800e00f520001003d000044eb004e
:102e5c00e04f540018003200544080000500200060
:102e6c000400be00f2f507000003be00e440800041
:102e7c00f54080000401be000600be00f3f507001b
:102e8c000002be000403be00644180007541800056
:102e9c000401be000600be00ecf507000002be00f7
:102eac000400be00bcf607000002be00040278005d
:102ebc003441880010003700544080000500200089
:102ecc000400be00daf507000003be006441800078
:102edc00754180000401be000600be00dbf5070052
:102eec000002be000400be00abf607000002be00ec
:102efc0004027800344188003441800004017800d9
:102f0c008000eb00a0a5200019fe07000002be0007
:102f1c000401be0010c0b300e2040700144080009e
:102f2c00b44088001e029000ae0290000400be0067
:102f3c004f04be000080fa00000006000000fa00fa
:102f4c0005e1a9000421a90004c1a90024088000fe
:102f5c000440a0000450a00024088800441f200056
:102f6c00140888000002eb00040888002405800087
:102f7c0004c0a00004d0a10004e0a1002405880036
:102f8c008460a9009460a80005e1a8000080fa0004
:102f9c00000006001800fa00889fbe008a9fbe0041
:102fac008c9fbe006022b80034079800450798003b
:102fbc000042eb00444798004e4090003047980088
:102fcc00be409000214798002e4290001447980074
:102fdc00ff0407000040eb00030507000000210080
:102fec007102200021f50700c70107000040eb002b
:102ffc008504070010c0b300830407000040eb00f9
:10300c00ef01070080c1b300ed0107000040eb00a9
:10301c00c701070090c1b300e90107000040eb00b5
:10302c00c301070074382900841f780070f9070069
:10303c008f87e9004092200074f90700bfff07005a
:10304c0021e3a900c722a8002a83a900c7e2a8008f
:10305c002143a800041980000480a1000490a10061
:10306c0004198800041980000450a0000460a0001a
:10307c000470a000041988000002eb0014198800e9
:10308c0025e3a9002519800004f021000502720037
:10309c002419880024c0b300044378004532200072
:1030ac00864a780021e3a800c90407000042eb001f
:1030bc00044f780022003700140280004522de0005
:1030cc0067426200244f98009002800060079800cd
:1030dc00ff3ffc00140280000450a0000460a0001c
:1030ec000470a000140288006e0290009402880004
:1030fc00000088004180200091407800014f78004a
:10310c009402800074079800ff3ffc002e4a900048
:10311c00674262000482fb00670262004522dd0008
:10312c0016028000f5f12f00850263000502720083
:10313c00140288007e02900094028800000088002f
:10314c001e427800e04f5200dbff32001e4290001e
:10315c00e04f520056003a00144080000500200059
:10316c000400be0032f507000006be00ea418000f4
:10317c00fb41800004408000050020000400be00dc
:10318c002bf50700c8418000d94180000c03be001c
:10319c000a02be000001be000800be0009030700c1
:1031ac003e009000ce00900021f507000002be000a
:1031bc00f2282c0053df23000400be00c2f50700e8
:1031cc000002be000400be000ef607000002be00a6
:1031dc0002002800234224000400be00baf50700b8
:1031ec000002be0002002e00e34c24000400be00ce
:1031fc0016f507000002be00c4418800d5418800c6
:10320c003e009000ce00900009f507000002be00c1
:10321c00f2282c0053df23000400be00aaf507009f
:10322c000002be000400be00f8f507000002be005c
:10323c0002002800234224000400be00a2f507006f
:10324c000002be0002002c00134c24000400be003f
:10325c00fef407000002be00e4418800f54188003e
:10326c003e029000ce02900061024200e0824a00d1
:10327c003407980045079800c4418000d541800070
:10328c000400be008dfd07000002be00040f980074
:10329c00150f9800e4418000f54180000400be0049
:1032ac0065fe07000002be00240f9800350f980041
:1032bc002e429000e04f520026003a0080c1b3002d
:1032cc003f0107000040eb001901070090c1b3005b
:1032dc003b01070080c0b3001501070004408000cb
:1032ec00841f7800c4392900841f7800c0f80700b7
:1032fc00e487570040922000c4f807006480200047
:10330c0014427800e04f52001200320080c1b3002a
:10331c002b0107000040eb000501070090c1b30032
:10332c002701070000c3b3000101070064802000df
:10333c00144278000482fb00841f7800543a290060
:10334c00841f7800aaf80700e487570040922000f9
:10335c00aef807003e429000e04f520014003a00d5
:10336c0080c1b300160107000040eb00f00007001d
:10337c0090c1b3001201070080c3b300ec0007003a
:10338c00f602070000027800841f7800543b2900e5
:10339c00841f780096f80700e487570040922000bd
:1033ac009af807004e4290000442e8004447980007
:1033bc001e4290000482fb008402e80024002000de
:1033cc00110009008402d80001027800144798000b
:1033dc002e4290000482fb008402e800440120008d
:1033ec00110009008402d8000102780024479800db
:1033fc003e4290000482fb008402e8004406200058
:10340c00110009008402d8000102780034479800aa
:10341c000042eb000443780045802000864a780087
:10342c0022ff37003600f800809fbe00829fbe004e
:10343c00849fbe00869fbe003400f8000000200070
:10344c00a00188001a00fa008460a90044802000c2
:10345c0014427800e14f520006003a0064802000cc
:10346c00144278000442e800044378006580200090
:10347c00864a78005480200014427800e04f5200b5
:10348c004b003a000002eb00040f78000e003700ee
:10349c001e02780004024200040247006602420049
:1034ac008002eb00050a7800ea030700800278002e
:1034bc001e02780004024200040247006602420029
:1034cc00050a78001e0fe8001e027800e40f520077
:1034dc00efff34000002eb00040f780028003700e7
:1034ec001e02e80014079800210037001e02780025
:1034fc000402420004024700b40290001e02900035
:10350c00040242000402470034029000848f5200ef
:10351c00140036001e027800040242000402470028
:10352c0034029000240798001e029000040242000e
:10353c0004024700b40290001e027800040242000c
:10354c000402470066024200050a7800ae029000b1
:10355c001e02900004024200040247006602420070
:10356c00050a78001e0290000402e8001407980077
:10357c001e029000e40f5200dcff34001e0fe80026
:10358c001e027800e40f5200d5ff34005e0290005a
:10359c000440880010c0b3009303070014c0b300ac
:1035ac000443780055802000864a78004a00370092
:1035bc000002eb00040f78000e0037001e027800aa
:1035cc000402420004024700700242008002eb0039
:1035dc00050a78009f030700800278001e0278001d
:1035ec00040242000402470070024200050a7800ff
:1035fc001e0fe8001e027800e40f5200efff3400ab
:10360c000002eb00040f7800280037001e02e800cf
:10361c0014079800210037001e02780004024200b3
:10362c0004024700840a90001e029000040242002b
:10363c0004024700040a9000848f520014003600e4
:10364c001e0278000402420004024700040a9000a3
:10365c00240798001e029000040242000402470056
:10366c00840a90001e027800040242000402470003
:10367c0070024200050a7800ae0290001e02900013
:10368c00040242000402470070024200050a78005e
:10369c001e0290000402e800140798001e0290001d
:1036ac00e40f5200dcff34001e0fe8001e0278000d
:1036bc00e40f5200d5ff34002e0a9000144088000d
:1036cc000040eb00480307000042eb000443780085
:1036dc0055802000864a780014c0b300044378005b
:1036ec0045802000864a78000080fa003400f900fa
:1036fc004f03be004f02be004f01be004f00be0084
:10370c003600f900004006000000fa0062002000bc
:10371c000140200000002800b1f7070000802e00b7
:10372c003100200051f307000080fa000000060071
:10373c000200fa00004f7800010037000000000082
:10374c0023c2bf00624060000004e000fbff3a00af
:10375c001e80fb00201188000100370000000000d3
:10376c0023c2bf00614060000004e000fbff320098
:10377c000080fa00000006000600fa00100798000e
:10378c00414798000040eb00004f780007003700dd
:10379c001e80fb00800078001e009000008040001e
:1037ac0010407800e2ff07001e4fe8004e409000ea
:1037bc009e4f1000f6ff39000080fa000000060052
:1037cc000200fa00004f7800c0c7b300d8ff070012
:1037dc001e407800d6ff07000080fa0000000600ab
:1037ec000000fa00c0c7b300d1ff07000040eb0097
:1037fc00cfff07000080fa00000006000200fa006c
:10380c00000f7800c0c7b300c9ff070010c0b30099
:10381c00c7ff07001e007800c5ff07000080fa00f4
:10382c00000006000200fa00000f7800c0c7b300c9
:10383c00bfff070020c0b300bdff07001e007800cb
:10384c00bbff07000080fa00000006000800fa0029
:10385c00000f780011079800220798003307980092
:10386c00c0c7b300b2ff070030c0b300b0ff070001
:10387c001e007800aeff07001e009000acff070092
:10388c002e009000aaff07003e009000a8ff070042
:10389c000080fa00000006000000fa00c0c7b30068
:1038ac00a3ff070040c0b300a1ff07000080fa008f
:1038bc00000006000800fa00000f780011079800bd
:1038cc002207980033079800c0c7b30098ff070081
:1038dc0050c0b30096ff07001e00780094ff07004d
:1038ec001e00900092ff07002e00900090ff070032
:1038fc003e0090008eff07000080fa0000000600da
:10390c000000fa00c0c7b30089ff070060c0b30015
:10391c0087ff07000080fa00000006000200fa0092
:10392c00000f78001e00e00002003c001000200098
:10393c00000f7800600020009e0f10000200340081
:10394c0060002000000f7800c0c7b30078ff0700ac
:10395c0070c0b30076ff07001e00780074ff0700ec
:10396c000080fa00000006000000fa00c0c7b30097
:10397c006fff070080c0b3006dff07000080fa00e6
:10398c00000006000200fa00000f7800c0c7b30068
:10399c0067ff0700a0c0b30065ff07001e0078009a
:1039ac0063ff07000080fa00000006000800fa0020
:1039bc00000f780011079800220798003307980031
:1039cc00c0c7b3005aff0700b0c0b30058ff0700d0
:1039dc001e00780056ff07001e00900054ff0700e1
:1039ec002e00900052ff07003e00900050ff070091
:1039fc000080fa00000006000a00fa00000f7800b0
:103a0c001107980022079800330798004407980084
:103a1c00c0c7b30046ff0700c0c0b30044ff070097
:103a2c001e00780042ff07001e00900040ff0700b8
:103a3c002e0090003eff07003e0090003cff070068
:103a4c004e0090003aff07000080fa0000000600cc
:103a5c000a00fa0010079800210798003207980016
:103a6c0043079800c0c7b30031ff0700d0c0b300b4
:103a7c002fff07001e0090002dff07002e00900066
:103a8c002bff07003e00900029ff07000000eb0011
:103a9c00000f7800070037001e00780080007800c7
:103aac004e009000008040001040780020ff07007e
:103abc001e0fe800f00120009e0f1000f6ff3400ee
:103acc000080fa00000006000a00fa00000f7800df
:103adc0011079800220798003307980044079800b4
:103aec00c0c7b30012ff0700f0c0b30010ff0700ff
:103afc001e0078000eff07001e0090000cff070050
:103b0c002e0090000aff07003e00900008ff0700ff
:103b1c004e00900006ff07000080fa00000006002f
:103b2c000600fa00000f7800110798002207980091
:103b3c00c0c7b300fefe070000c1b300fcfe0700c7
:103b4c00000820009e0f10000300340000c8b300d2
:103b5c00f7fe0700070037001e00e00003003d00e1
:103b6c000040eb00f2fe0700020037001e00780058
:103b7c00effe07009e00900000042000808f500094
:103b8c000300340000c4b300e9fe0700080037004e
:103b9c001e0090000000e00003003d000040eb0020
:103bac00e3fe0700020037001e009000e0fe070055
:103bbc002e009000e10f5000060032002e00900005
:103bcc000000e0000300320010c0b300d8fe070074
:103bdc00020037002e009000d5fe07000080fa008e
:103bec00000006000a00fa00000f78001107980088
:103bfc002207980033079800044f9800c0c7b30001
:103c0c00cbfe070020c1b300c9fe07001e007800e0
:103c1c00c7fe07001e009000c5fe07002e00900096
:103c2c00c3fe07003e009000c1fe07000e48900046
:103c3c00bffe07000080fa00000006000000fa003a
:103c4c00c0c7b300bafe070040c1b300b8fe0700fe
:103c5c000080fa00000006000000fa00c0c7b300a4
:103c6c00b3fe070050c1b300b1fe07000080fa009c
:103c7c00000006000e00fa001007980021079800bb
:103c8c00320798004307980054079800650798007e
:103c9c00c0c7b300a6fe070060c1b300a4fe0700b6
:103cac001e009000a2fe07002e009000a0fe070050
:103cbc003e0090009efe07004e0090009cfe070008
:103ccc005e0090009afe0700ce0090005e0090000f
:103cdc000088b90082002000110009000200d80001
:103cec00000f78000000eb00100798000900370067
:103cfc001e009000800078006e0090000080400054
:103d0c00104078008afe07001e0090000000e800ba
:103d1c00100798001e0090009e0f5000f4ff350015
:103d2c000080fa00000006000400fa00000f780082
:103d3c0011079800c0c7b3007dfe070080c1b30017
:103d4c007bfe07001e00780079fe0700c0c7b30099
:103d5c0077fe070090c1b30075fe07001e009000af
:103d6c0073fe07000080fa00000006000400fa0051
:103d7c00100798001e009000e80f5000030034005c
:103d8c0080002000100798000c0037001e009000e7
:103d9c000000e00003003c00100020001007980019
:103dac00060037001e0090004300dd00680f500035
:103dbc009e00780010002000dbff07000080fa0056
:103dcc00000006001800fa00889fbe00400798000b
:103ddc00510798006207980073079800040f980029
:103dec00150f9800260f9800370f98006e01900061
:103dfc00fe0190004e009000de00900012f20700d1
:103e0c000002be000401be000400be00aef20700ba
:103e1c000002be000404be002e099000be099000f2
:103e2c000e0890009e08900007f207000002be00ea
:103e3c000401be000400be00a3f207000002be0095
:103e4c000401be000800be0000f207000002be0024
:103e5c00a2702d0033c223000400be009af20700aa
:103e6c000002be00048fbe0044428000cfa2de00e0
:103e7c000400be00e7f207000002be000401be0011
:103e8c000400be0090f207000002be000404be0055
:103e9c0054428000cfa2de000400be00ddf2070019
:103eac000002be000401be000400be0086f2070042
:103ebc000002be000401be000800be00e3f10700d2
:103ecc000002be00a2702d0033c223000400be000d
:103edc007df207000002be00240798003507980009
:103eec000442800015428000a2702d0033ca2300ca
:103efc000400be00d5f107000002be000442880099
:103f0c00154288002e019000be0190001e00be00dc
:103f1c00cef107000002be00a2702d0033ca2300b0
:103f2c000400be0068f207000002be000403be00dd
:103f3c0024428000354280000401be000600be0011
:103f4c00c2f107000002be002442880035428800fe
:103f5c004f04be000080fa00000006000000fa00ca
:103f6c0026428000374280000442800015428000c7
:103f7c000401be000600be0011f207000002be00e4
:103f8c000400be0084f207000002be0004027800a8
:103f9c00040078000080fa00000006000400fa001b
:103fac00004f7800110798009e4278000582fb00b4
:103fbc00e00f520003003200e10f52000600320005
:103fcc000a0037009e02900044a22f000482420097
:103fdc0044428800050037009e02900044a22f0046
:103fec000482420054428800000000001e0290002f
:103ffc00050020000400be008df107000002be0089
:10400c000401be001e407800a60007000080fa00e4
:04401c00000006009a
:020000040000fa
:104020003008000010000000020000005401cc0025
:104030000bc60100610a000040ce440000c0c10070
:1040400044000000000800003000000000000000f4
:10405000400800000c000000000000004c080000b8
:104060000200000000000000180900002400000009
:1040700002000000400900000040090009000000a3
:104080000002000042090000004209000e02010087
:104090000000000000000000000000000602020016
:1040a000000000003c0900000200000002000000c7
:1040b000180900003e090000020000000000000096
:1040c000400900000200000000000000420900005a
:1040d0000200000000000000ee0800002a000000be
:1040e00002000000303132003334350036373800fa
:1040f000394142004344450046003000313233002c
:104100003435360037383900616263006465660013
:1041100000286e00756c6c00290000004e0800003d
:10412000a0000000020000000100000000000000ec
:1041300000000a0000000000000000000064000011
:104140000000000000000000e80300000000000084
:1041500000001000270000000000000000a0860002
:10416000010000000000000040420f0000000000bd
:104170000000800096980000000000000000e100b0
:10418000f50500000000000000ca9a003b00000096
:1041900000000000e40b5400020000000000e800f2
:1041a00076481700000000000010a500d4e80000c9
:1041b00000000000a0724e0018090000000040003e
:1041c0007a10f3005a0000000080c600a47e8d0023
:1041d0000300000000c16f00f28623000000000011
:1041e0008a5d78004563010000006400a7b3b60053
:1041f000e00d000000e889000423c7008a000000e9
:10420000440900000200000002000000010000005c
:0442100000000000aa
:020000040000fa
:104214000200fa00004f780011e1a9001021a90062
:1042240010c1a9000002eb00340888008408800053
:104234000440a1000450a0008408880084e0a90080
:1042440094e0a90004fa2000640888001e42780063
:10425400e04f520008003a00d2e2a900c4ee200068
:10426400640d880044e72000540d88006400200099
:10427400740d88000a0037001e427800e14f520096
:1042840007003a00d2c2a900c4ee2000340d880011
:1042940044e72000240d880064002000440d8800b9
:1042a40011e1a8000080fa00000006000600fa00f0
:1042b400881f7800004f78001207980023079800a1
:1042c40018c0b30062662600630024001e0090003c
:1042d400ae009000daf0070000027800e00f520010
:1042e40001003c000044eb00e04f540034003a006d
:1042f40018c0b3006266260063f623001e00900017
:10430400ae009000d0f0070000027800e00f5200e9
:10431400010035000044eb00e04f54002a003a004d
:104324001e427800e04f520011003a0002002000c3
:10433400833424001e009000ae00900064f1070056
:104344000002be000401be0000002000a1572400aa
:10435400bff007000002be000400be0090f1070099
:104364000002be0004027800540d880017003700d4
:104374001e427800e14f520014003a00020020006f
:10438400833424001e009000ae00900050f107001a
:104394000002be000401be0000002000a15724005a
:1043a400abf007000002be000400be007cf1070071
:1043b4000002be0004027800240d880003003700c8
:1043c4000000000001003700000000004f047800e6
:1043d4000080fa00000006000000fa00d822a900bc
:1043e400d842a900d862a9000080fa0000000600a3
:1043f4000200fa00004f78001e427800e04f52009d
:1044040009003a004519800004fe2f00048262006e
:10441400f400b30044198800dc22a900dc42a8009f
:10442400dc62a8000b0037001e427800e14f520006
:1044340008003a004519800004fe2f00048262003f
:104444009400b30044198800dc22a800dc42a900cf
:10445400dc62a9000080fa00000006000000fa00f7
:104464002023a800000000000419800061026200fb
:10447400e00f5200fcff32002003a9000418800062
:0c448400040078000080fa000000060030
:020000040000fa
:0200000401f009
:04000800ffff0000f6
:020000040000fa
:0200000401f009
:04000c00fbff0000f6
:020000040000fa
:0200000401f009
:04001000fdff0000f0
:020000040000fa
:0200000401f009
:040014007fff00006a
:00000001FF
