:020000040000fa
:080000000002040000000000f2
:020000040000fa
:100008004a0800004a0800004a0800004a080000a0
:100018004a0800004a0800004a0800004a08000090
:100028004a0800004a0800004a080000b60200001a
:100038004a0800004a0800004a0800004a08000070
:100048004a0800004a0800004a0800004a08000060
:100058004a0800004a0800004a0800004a08000050
:100068004a0800004a0800004a0800004a08000040
:100078004a0800004a0800004a0800004a08000030
:100088004a0800004a0800004a0800004a08000020
:100098004a0800004a0800004a0800004a08000010
:1000a8004a0800004a0800004a0800004a08000000
:1000b8004a0800004a0800004a0800004a080000f0
:1000c8004a0800004a0800004a0800004a080000e0
:1000d8004a0800004a0800004a0800004a080000d0
:1000e8004a0800004a0800004a0800004a080000c0
:1000f8004a0800004a0800004a0800004a080000b0
:100108004a0800004a0800004a0800004a0800009f
:100118004a0800004a0800004a0800004a0800008f
:100128004a0800004a0800004a0800004a0800007f
:100138004a0800004a0800004a0800004a0800006f
:100148004a0800004a0800004a0800004a0800005f
:100158004a0800004a0800004a0800004a0800004f
:100168004a0800004a0800004a0800004a0800003f
:100178004a0800004a0800004a0800004a0800002f
:100188004a0800004a0800004a0800004a0800001f
:100198004a0800004a0800004a0800004a0800000f
:1001a8004a0800004a0800004a0800004a080000ff
:1001b8004a0800004a0800004a0800004a080000ef
:1001c8004a0800004a0800004a0800004a080000df
:1001d8004a0800004a0800004a0800004a080000cf
:1001e8004a0800004a0800004a0800004a080000bf
:0801f8004a0800004a0800005b
:020000040000fa
:100208004a0800004a0800004a0800004a0800009e
:100218004a0800004a0800004a0800004a0800008e
:100228004a0800004a0800004a080000b602000018
:100238004a0800004a0800004a0800004a0800006e
:100248004a0800004a0800004a0800004a0800005e
:100258004a0800004a0800004a0800004a0800004e
:100268004a0800004a0800004a0800004a0800003e
:100278004a0800004a0800004a0800004a0800002e
:100288004a0800004a0800004a0800004a0800001e
:100298004a0800004a0800004a0800004a0800000e
:1002a8004a0800004a0800004a0800004a080000fe
:1002b8004a0800004a0800004a0800004a080000ee
:1002c8004a0800004a0800004a0800004a080000de
:1002d8004a0800004a0800004a0800004a080000ce
:1002e8004a0800004a0800004a0800004a080000be
:1002f8004a0800004a0800004a0800004a080000ae
:100308004a0800004a0800004a0800004a0800009d
:100318004a0800004a0800004a0800004a0800008d
:100328004a0800004a0800004a0800004a0800007d
:100338004a0800004a0800004a0800004a0800006d
:100348004a0800004a0800004a0800004a0800005d
:100358004a0800004a0800004a0800004a0800004d
:100368004a0800004a0800004a0800004a0800003d
:100378004a0800004a0800004a0800004a0800002d
:100388004a0800004a0800004a0800004a0800001d
:100398004a0800004a0800004a0800004a0800000d
:1003a8004a0800004a0800004a0800004a080000fd
:1003b8004a0800004a0800004a0800004a080000ed
:1003c8004a0800004a0800004a0800004a080000dd
:1003d8004a0800004a0800004a0800004a080000cd
:1003e8004a0800004a0800004a0800004a080000bd
:0803f8004a0800004a08000059
:020000040000fa
:10040000afe520000eff27000e018800000000006d
:10041000000020000000e000020032000001200087
:10042000200288000c000700606822000100200004
:100430001f000700000020000000e0000200320062
:100440000000020000000000740302000000000031
:100450000040da000000fe004440a90040052000f2
:100460000000e0000300320000002000a00188002e
:100470004440a80000000600f03fb1000180b10038
:1004800006003500ee03090000000000403fb10007
:100490000180b100fbff3d001000b000203fb00024
:1004a0000200350000800900000000000000060086
:1004b00091018800800078000000eb0015003700f3
:1004c000e280400032a0b4009101ba00e280400016
:1004d00032a0b4009102ba00e280400032a0b40021
:1004e0000002eb00472bde00f507b200602ce100b4
:1004f00004003a000059eb008301e900fdff3e00d3
:10050000040037006128e100010032000082eb00a6
:10051000040007001101ba000200e000e8ff3a0001
:10052000000006003159ba008301e9000c003200d6
:100530002159ba008301e900080032000400e000fc
:1005400003003a00e280400032a0b400f5ff37001b
:1005500011d9ba008301e900faff3a008100e800ee
:10056000e180400032a0b40000000600841f780043
:100570003400f80004002000a40188000000fa0004
:1005800014002000044088008460a9000080fa0064
:100590003400f9004f027800004006001200fa0013
:1005a000889fbe006007980071079800020f9800ae
:1005b0000e0a9000050020000400be00e9020700ba
:1005c0000002be00048fbe006e02900005002000f5
:1005d0000400be00e30207000002be0024079800ea
:1005e000350798007e029000050020000400be0040
:1005f000dc0207000002be0044079800550798007f
:1006000018c0b3002e019000be0190001e00be0075
:10061000d602070000027800e00f520001003d0002
:100620000044eb00e04f54000300320064662600f3
:10063000650024002800370018c0b3004e01900068
:10064000de0190001e00be00ca0207000002780012
:10065000e00f5200010034000044eb00e04f540072
:10066000030032006466260065f623001a00370096
:100670004e019000de0190001e00be00bf02070088
:100680000002be000404be004e019000de01900096
:100690002e009000be009000b80207000002be00cd
:1006a0000401be000800be00120307000002be00e5
:1006b000a299290093f923000400be004f0307000c
:1006c0000002be006266260063f623000400be003e
:1006d000ab0207000002be000400be004f04be00d3
:1006e0000080fa00000006003800fa00889fbe0073
:1006f0001400200084528800d50f07000040eb0052
:100700000110070005e1a9000421a90004c1a90006
:100710000002eb0004088800240880000440a100c7
:100720000450a000240888008460a9009460a800f8
:10073000047122001408880005e1a80021e3a90043
:10074000c722a8002a83a900c7e2a8002143a80065
:10075000041980000480a1000490a10004198800fd
:10076000041980000450a0000460a0000470a000e0
:10077000041988000002eb001419880025e3a90081
:100780002519800004f02100050272002419880058
:1007900024c0b3000443780045322000864a780024
:1007a00021e3a8000040eb004212070010c0b30094
:1007b00040120700b11207000002eb005407980036
:1007c0000002eb00040f78000002eb001407980011
:1007d0000400200005f023006407980075079800c6
:1007e000d4cc2c00c5dc2b00040f9800150f98000a
:1007f0000400200005f82300240f9800350f98000e
:100800006022b800240798003507980080c1b30023
:10081000bd0f07000040eb00970f070090c1b30029
:10082000b90f07000040eb00930f0700442d2a008a
:10083000841f7800f30707008f87e90080a320005a
:10084000f707070080c1b300af0f07000040eb00bf
:10085000890f070090c1b300ab0f070080c0b30041
:10086000850f0700a42d2a00841f7800e5070700e4
:100870008f87e90080a32000e907070080c1b3004b
:10088000a10f07000040eb007b0f070090c1b300f1
:100890009d0f070000c1b300770f0700042e2a0048
:1008a000841f7800d70707008f87e90080a3200006
:1008b000db07070080c1b300930f07000040eb0087
:1008c0006d0f070090c1b3008f0f070080c1b30008
:1008d000690f0700642e2a00841f7800c9070700eb
:1008e0008f87e90080a32000cd07070080c1b300f7
:1008f000850f07000040eb005f0f070090c1b300b9
:10090000810f070000c2b3005b0f070034662000b0
:10091000841f7800c42e2a00841f7800b9070700be
:10092000e487570080a32000bd07070080c1b30003
:10093000750f07000040eb004f0f070090c1b30098
:10094000710f070080c2b3004b0f07002e0a900002
:10095000be0a9000849fbe00742f2a00841f780076
:10096000a8070700e687570080a32000ac07070010
:1009700080c1b300640f07000040eb003e0f07008a
:1009800090c1b300600f070000c3b3003a0f070027
:100990000e0a90009e0a9000849fbe006e02900096
:1009a000fe029000849fbe00f42f2a00841f78006e
:1009b00094070700ea87570080a3200098070700e4
:1009c00080c1b300500f07000040eb002a0f070062
:1009d00090c1b3004c0f070080c3b300260f07007f
:1009e00034312a00841f7800860707008f87e900ca
:1009f00080a320008a0707000002eb00440f980044
:100a000072a42000011e200070a42000e3fe070055
:100a10000002be000401be0010c0b300cc110700ec
:100a20000000000004408000e10f5200fdff3a008a
:100a30000002eb00044088000040eb0015120700a4
:100a400000402f00110020008bfe07000002eb0089
:100a5000040f78000e0037001e02780004024200e6
:100a6000040247004402b0008002eb00050a78004f
:100a700023120700800278001e0278000402420060
:100a8000040247004402b000050a78001e0fe80087
:100a90001e027800e40f5200efff36000002eb0068
:100aa000040f7800280037001e02e80014079800a1
:100ab000210037001e0278000402420004024700b1
:100ac000a41290001e02900004024200040247009b
:100ad00024129000848f5200140036001e02780009
:100ae0000402420004024700a41290005507980037
:100af0001e0290000402420004024700a41290006b
:100b00001e02780004024200040247004402b000c2
:100b1000050a78001e029000040242000402470009
:100b20004402b0005e039000060a78001e029000a6
:100b30000402e800140798001e029000e40f52001f
:100b4000dcff36001e0fe8001e027800e40f5200a2
:100b5000d5ff360010c0b300ce11070000402f00b3
:100b60001100200044fe07000002eb00040f780093
:100b70000e0037001e027800040242000402470003
:100b8000e402b0008002eb00050a7800dc110700e7
:100b9000800278001e02780004024200040247002e
:100ba000e402b000050a78001e0fe8001e0278007b
:100bb000e40f5200efff36000002eb00040f780054
:100bc000280037001e02e8001407980021003700b3
:100bd0001e0278000402420004024700f412900052
:100be0001e029000040242000402470074129000aa
:100bf000848f5200140036001e0278000402420066
:100c000004024700f4129000550798001e0290005d
:100c10000402420004024700f41290001e02780011
:100c20000402420004024700e402b000050a780012
:100c30001e0290000402420004024700e402b000d9
:100c40005e039000060a78001e0290000402e8008d
:100c5000140798001e029000e40f5200dcff3600db
:100c60001e0fe8001e027800e40f5200d5ff360088
:100c70004e129000050020000400be00390107005c
:100c80000002be000401be0000002600c14c24008a
:100c90003a0107000002be006e019000fe019000c4
:100ca0000400be00d50107000002be0002002200c1
:100cb000e34924000400be00310107000002be0029
:100cc0000400be00010207000002be00540f98009d
:100cd0004e129000050020000400be002101070014
:100ce0000004be004e029000050020000400be007b
:100cf0001c0107000002be000401be000800be0087
:100d00001e0107000002be00d2cc2c00c3d4230079
:100d10000400be00770107000002be000e0990002b
:100d20009e0990000400be00b40107000002be004e
:100d3000640f9800750f98006e089000fe089000f0
:100d4000e20107000002be0004179800ce129000d6
:100d500034662000848f5200080036002e0990006f
:100d6000be0990002e009000be0090000301070015
:100d70000002be002407980035079800ce129000ac
:100d800024662000848f520008003e002e09900047
:100d9000be0990002e009000be009000f8000700f1
:100da0000002be0024079800350798005e0a9000f4
:100db000050020000400be00ea0007000004be0099
:100dc0000e129000050020000400be00e5000700a0
:100dd0000002be000401be000800be00e8000700db
:100de0000002be002e019000be0190000400be0073
:100df000e30007000002be000400be00b3010700cc
:100e00000002be00141798001e1190008000eb0035
:100e1000209e2000e1fd07000002be000401be008c
:100e20000040eb00ca1007004e12900044079800e3
:100e300080c1b300340e0700e0c1b3000e0e0700fe
:100e400090c1b300300e07000040eb000a0e07000f
:100e5000a4312a00841f78006a0607008f87e90002
:100e600080a320006e06070080c1b300260e070095
:100e7000e0c1b300000e070090c1b300220e0700ce
:100e80000040eb00fc0d07009e129000851f7800cb
:100e900054322a00841f78005a060700e48757005e
:100ea00080a320005e06070080c1b300160e070075
:100eb000e0c1b300f00d070090c1b300120e0700af
:100ec00080c0b300ec0d0700a4312a00841f780015
:100ed0004c0607008f87e90080a32000500607001a
:100ee00080c1b300080e0700e0c1b300e20d0700a7
:100ef00090c1b300040e070080c0b300de0d0700f0
:100f00002e029000be029000849fbe0054322a0040
:100f1000841f78003b060700e687570080a3200067
:100f20003f06070080c1b300f70d0700e0c1b30022
:100f3000d10d070090c1b300f30d070000c1b3004d
:100f4000cd0d0700a4312a00841f78002d0607006c
:100f50008f87e90080a320003106070080c1b3001d
:100f6000e90d0700e0c1b300c30d070090c1b30055
:100f7000e50d070000c1b300bf0d07000e13900080
:100f8000861f780054322a00841f78001d0607004f
:100f9000e487570080a320002106070080c1b3002a
:100fa000d90d0700e0c1b300b30d070090c1b30035
:100fb000d50d070080c1b300af0d0700a4312a0092
:100fc000841f78000f0607008f87e90080a32000a8
:100fd0001306070080c1b300cb0d0700e0c1b300ca
:100fe000a50d070090c1b300c70d070080c1b30075
:100ff000a10d07005e0a9000841f780054322a0079
:10100000841f7800ff050700e487570080a32000b5
:101010000306070080c1b300bb0d0700e0c1b300a9
:10102000950d070090c1b300b70d070080c3b30052
:10103000910d0700a4312a00841f7800f1050700f4
:101040008f87e90080a32000f505070080c1b30069
:10105000ad0d0700e0c1b300870d070090c1b300dc
:10106000a90d070080c3b300830d07004e12900046
:10107000841f780054322a00841f7800e10507009d
:10108000e487570080a32000e5050700000000006a
:1010900064fe37000040da000000fe0000c0da0005
:1010a000000006000a00fa00e20f500022003e0095
:1010b00084528000e10f5200060032008723200096
:1010c000462320002423200005232000e08f530026
:1010d00004003a008722200046222000242220001b
:1010e00005222000000028001500600003003a00df
:1010f000800b780007002800958a730005402000c7
:101100009482620001003a0014a0a00082027800dc
:1011100006003700940378000710b200fdff32008c
:10112000b103fb00070b78008502e900e08f520055
:10113000f8ff3a000800370034002000c0bf9f00cd
:10114000e2bf9f00b4bf9f00d1bf9f006a805700dd
:10115000d2ff07006fb99700020078000080fa0004
:10116000000006006011b800f3003700f4ff2f0004
:1011700020013700140020001e01370003f0a200f8
:10118000889fbe008a9fbe008c1f78003401070034
:101190003b0133006450e1004f0032006420e10065
:1011a0005200320003826c0007003b000905d000aa
:1011b0000306d000820f54000c065d0002003900c7
:1011c000020032008901780003067800858255000c
:1011d00004003d000003fd008103fd008502ea00dc
:1011e0008b854200840f720002003b0060001000fb
:1011f000e08018006011b8000005eb007a28e100db
:101200000a00390006007800c75ddd00f707b2006c
:10121000878075002d003700828171000a017800f7
:10122000610560008180d1000080d3008502e90063
:10123000f9ff3b00060440008784480002003b00a1
:1012400060041400e0841c000988a3000700320039
:101250008a81710082817100610164008904d1007a
:101260000884d3008b05e800170037000978a30035
:1012700013003a000b00e000130034008b05e90076
:101280000804440089844c000a4474000978a300cf
:101290000d003a000b00e000070034008b05e90068
:1012a0000804440089844c0001003a000b0020002f
:1012b0000978a300f7ff32000001eb0002003700bd
:1012c000828171000a017800fd0007000cf0a70080
:1012d00001f0a000f30037006420e10002003a00b2
:1012e000838f6c00f30033000801be000200be00d3
:1012f000ec003700889fbe008a9fbe008c1f7800dc
:10130000d7000700de00330003866c006450e10064
:101310002e0032006420e100330032006150e10011
:101320002f0032006120e100310032008585550038
:10133000eb07b0000900200008042000050037007a
:101340000804440089844c000a003100060343006d
:1013500087834b000001530081815b00f8ff33005d
:101360000203be000800a0000804440089844c0069
:10137000f6ff3900c639dd00830173000100320039
:10138000130020008904d1000884d3000998a30029
:10139000050032000800a7000300a0008904d10066
:1013a0000884d3008b05e8008904d1000884d300a9
:1013b0000001eb000281d200c100070001f0a10092
:1013c0000cf0a70001f0a000b60037006420e10097
:1013d000b80032000801be000200be00f7ff37006f
:1013e0006120e100b30032006000b800f3ff370075
:1013f0000000200001f82700f0ff3700889fbe00a2
:101400008a9fbe008c1f7800950007009c00330067
:1014100003866c006450e100240032006420e10087
:10142000270032006150e100220032006120e1001b
:10143000210032008b854200eb07b1000134b80077
:10144000003ab8000804420089844a00013ab80012
:101450000030b8008880400009014a0004003300d1
:101460000000400081804800020149008b05e9002e
:10147000c909dd0083017000010032001300200063
:10148000c814de004814dd004709de001200b20077
:10149000c808de00088470008900070001f0a10080
:1014a0000cf0a70001f0a0007e0037006120e100f1
:1014b000800032000801be000200be00f7ff3700c6
:1014c0006150e100fcff3a007a0037000001be00e5
:1014d000a10007000470a70003f0a10003f8a30017
:1014e00013003a006509b100100032000900350010
:1014f0006928e10002003500010028000000050015
:1015000000004000818048008502e900fcff3a00ad
:1015100000000600f88f4200050035008100d10070
:101520000080d3008502e800fcff3a0000000600be
:101530008000eb0000000500889fbe008a9fbe006f
:1015400000827000040271000482710026003200e3
:101550000004be000200be006011b8006b0920004c
:10156000950220000182cf000a0039000541b10038
:101570000082cf00070039000541b1000982cf0089
:10158000040039000541b1000882cf000100390094
:101590000541b10005425200120032000a003b0032
:1015a00082817100610164008100d1000080d3005c
:1015b0008984d3000884d3008b05e8000442e80046
:1015c000f7ff3a00070037000804440089844c0004
:1015d00000004800818048008b05e9000442e900d2
:1015e000f9ff3a00360007004f05be004f04be0069
:1015f00000000600889fbe008a9fbe00841f7800fe
:10160000170007004f00780011003300f0ff2f0093
:10161000838f6c0006003b00040565000a00a700ec
:101620000800370009f0a60010002000080037006d
:10163000820f5400838f5c000300390010002000eb
:1016400001003e000000200009f0a7000000ea00b1
:101650004f05be004f04be000000e0000000060081
:101660000004be003c0007000003be000405be00ed
:101670000200be0038000700844f7500000006001d
:101680000200be006450e100050036006420e10065
:10169000020036000968a30001003a000800be00fd
:1016a0000160a0004f0678004f05be004f04be0049
:1016b00000000600f0ff2f00f1ff2700f9ff3700c0
:1016c00081002000618055000b003d000b002000d0
:1016d00061fe2f000100e1001d00340082817100d5
:1016e000610164008904d1000884d3000000e8008f
:1016f000faff3a00710020006100640003007000ee
:10170000020060000900320061044400e0844c00e3
:101710000988a500050032008b05e8006808e10093
:1017200002003a008904d1000884d300f20f20009f
:101730000258e10005003d00c75ddd00f907b20079
:101740008980750008007800000006000bf827006b
:101750008b00780000000500c70ade00f107b20028
:10176000f50fb20008003200e1cf42000200320063
:101770000170a00024000500810f700001003200fc
:101780000408050044000500810f700002003a00c3
:10179000140005008502e9000000400081c04800f7
:1017a000fcff3b000170a000240005002800fa00a7
:1017b000889fbe008a9fbe008c9fbe0003866b0080
:1017c000350307000028a30064003a000128a300a5
:1017d00067003a000008a30062003a000108a30075
:1017e00065003a001e009000be089000810640008f
:1017f000ed3fb100f4805700ee019000111ab800df
:101800008e099000311bb8009e099000311cb80071
:10181000511db800f485570046000700fe019000f6
:101820003a0007008b85e8003e0007008e09900013
:1018300040000700ee019000340007008b85e800af
:10184000380007008e099000400007009e099000b4
:101850001b18b800890440000a854800fe0190006a
:10186000340007008b85e80038000700ee01900087
:10187000300007008e0990001b18b8008904400052
:101880000a8548000a98a30008003a0004024200b2
:1018900085824a0006034b0087834b0008044c00f6
:1018a00089844c000a054d008d06e900848272008f
:1018b000850273004c3add0085027200010032009f
:1018c00015002000443ade001400b2004538de0066
:1018d000cb45dd000b007000c540de00cb4ddd00c8
:1018e0008b8070004549de00cb55dd000b01710097
:1018f000c551de000d0378000003070003f0a100ce
:101900000cf0a70003f0a000f70237001b18b80086
:101910008502400006834800e0834b0060044c00d1
:10192000070037001b18b8000603400087834800f3
:10193000faff37001b18b8008703400008844800ee
:10194000e0844c0060054d00000006001b18b80044
:101950000804400089844800faff37000108a3000a
:10196000de023a005800be005801be00e3ff370017
:101970000008a300d9023a0009047800f9ff3700f3
:101980008103780074ff07000001be006000b8000a
:101990000478a30013003a006220e10015003e0025
:1019a0000d0039008301d1000281d3008180d30072
:1019b0008301d1000281d3008180d3008301d10053
:1019c0000281d3008180d3000538b000c42add0035
:1019d000f300b2008381720007f0a70003f0a000bb
:1019e00000000600f3ff2700f2ff2f006110b9008e
:1019f000fbff370003ff2700f7ff37008f1fd100e1
:101a0000ea0207008f87e9000000e00000000600fe
:101a1000801feb00e50207008f87e9000000e0006f
:101a2000000006001400fa00889fbe008a9fbe00d6
:101a30008c9fbe00040678000004be000205be00b4
:101a4000680047000a90be000890be00000307002f
:101a50006200e1000800be000a01be000400200090
:101a60000b003a001e029000e43fb1006e009000af
:101a7000fe0090000e0990009e099000f300b20055
:101a800005fe2300858171000bf0a70003f0a00084
:101a9000040e780094023700809feb00c302070019
:101aa0008f87e9000000e000000006002800fa002f
:101ab000889fbe008a9fbe008c9fbe0007067800ec
:101ac000878669000c003b000304780087047800d7
:101ad00008f0a10009f0a100840f5000858f580084
:101ae000860f5900890f5c00030033000cf0a20040
:101af00001003a000cf0a100670207006400e10059
:101b00005f003200780147006408e10061003200a4
:101b10006c014700748557003200be001201be0000
:101b20003a04be001a05be001e039000be0a9000d3
:101b30008503530006003d000004fd008104fd0004
:101b40000205fd008305fd008703ea000503780018
:101b50000df8a3000400320060041400e0841c00af
:101b600060051d00e0851d006022b8007d03200097
:101b70000d38e1008006eb000b0039004433dd0036
:101b8000f300b200830173003900370084827200d1
:101b90000d027800e10664008b85d1000a85d30030
:101ba0008984d3000884d3008703e900f7ff3b0052
:101bb00008004000898048000a0149008b814900e3
:101bc00004003b0060001000e08018006001190074
:101bd000e08119000358a300090032008d827200d1
:101be00084827200610260008301d1000281d3000f
:101bf0008180d3000080d3000603e8001b0037007b
:101c00000348a30017003a000600e0001700340064
:101c10000603e9000d00a300000048008180480091
:101c200002014900838149000348a3000f003a00e4
:101c30000600e000090034000603e900000040004f
:101c400081804800020149008381490001003a0077
:101c50000003eb000348a300f5ff32006022b80048
:101c6000020037008482720061826600230207004e
:101c700003f0a1000cf0a70003f0a0001a02370047
:101c8000640147006408e10002003a000df8a30077
:101c900012023a003200be001201be0012023700ea
:101ca0001400fa00889fbe008a9fbe008c9fbe0071
:101cb0000004be000205be00680047000a90be0096
:101cc0000890be00620207000070a7000bf0a100a0
:101cd0000bf8a30020003a009e0990000e09900026
:101ce000fe0090006e0090009e02900034432000a1
:101cf00084825200fc0132000a003c00b4fc2f0038
:101d00000428e100140034008301d1000281d300d3
:101d10008180d3000080d3008502e800faff3a00fa
:101d2000f1013700b40020000428e10007003c0066
:101d30000000400081804800020149008381490081
:101d40008502e900faff3a00e701370003002800a6
:101d500002002000010037006011b8006000b800e8
:101d6000e10137002800fa00889fbe008a9fbe006c
:101d70008c9fbe0003866b00c70107006400e10072
:101d8000440032006408e1004a0032006100e100d2
:101d9000460032006108e10049003200ec064700cd
:101da0006000b8003d02be003d03be00f48657004f
:101db0006011b8003d04be003d05be007d0320005b
:101dc0000b0037000000a0008d06e9001300320070
:101dd0000402420085824a0006034b0087834b00c1
:101de00000004000818048000201490083814900d1
:101df0000802520089825a000a035b008b835b0051
:101e0000f0ff3b000802420089824a000a034b00af
:101e10008b834b008d06e900edff3a00848272004f
:101e200086827200f707b2008782720001003200da
:101e3000150020001e0490003e0b90000603540085
:101e4000e63fb0000368a300070032000000a700cf
:101e50000500a0008301d1000281d3008180d3005e
:101e60000080d3000603e8008301d1000281d30083
:101e70008180d3000080d3000002eb000482d200f6
:101e80009e01070003f0a1000cf0a70003f0a000e2
:101e900095013700640247006408e1008f013200b9
:101ea0003400be003401be00f6ff37006108e100d7
:101eb0008a0132006011b8006000b800f1ff3700fd
:101ec00003ff270002002000fbff3700889fbe00b1
:101ed000008270000402710004827100240032004c
:101ee00036432000c50020008383cf000a0039005c
:101ef0000541b1008283cf00070039000541b100e0
:101f00008183cf00040039000541b1008083cf00f8
:101f1000010039000541b10085c353006022b800bb
:101f2000120032000a003b008482720061026000ed
:101f30008301d1000281d3008180d3000080d300cf
:101f40000603e8008743e800f7ff3a000700370080
:101f5000000040008180480002014900838149005f
:101f60000603e9008743e900f9ff3a00630107002f
:101f70004f04be000000060007f0a200cbfe3700b1
:101f8000889fbe008a9fbe003004be002005be00b0
:101f90000404440085844c0006054d0087854d00ef
:101fa0000898be000a90be000440e10005c8e100a8
:101fb00006d0e10007d8e1000200310068004000cf
:101fc0001008e8004f05be004f04be0000000600e8
:101fd0001000fa00889fbe008a9fbe0011002000fa
:101fe0000605be000404be003002be002003be0091
:101ff000c4b79f00d5b79f00e6b79f00f7b79f0013
:102000000802520089825a000a035b008b835b003e
:1020100084bf9f0095bf9f00a6bf9f00b7bf9f00d2
:102020000498be000698be004fb29700dfb297003a
:102030006fb39700ffb39700b000070001003900ad
:102040008000eb004f05be00108810004f04be005a
:102050000080fa00000006001400fa00889fbe000d
:102060008a9fbe008c9fbe000006eb00790007002f
:10207000ccb79f00bcb79f00acb79f009cb79f0038
:102080008cb79f000605be000404be000d042000ae
:102090004fb39700bfb29700860343002fb297005b
:1020a000e00f530004003d00990007000f004000be
:1020b000b3ff070003003700950007000f00400042
:1020c000c3ff0700cfb2970095bf9f00e08f52007b
:1020d00009003500660007001400200005002000fc
:1020e0006033b8000000720081807200020173004a
:1020f00083817300570007000c06e8008d0f56001f
:10210000e3ff3a001fba9700e00f520005003d00c0
:102110000802be000a03be0000fe2f000f004000b0
:1021200097ff07004faa9700e00f520008003a00ff
:102130000fb497009fb497002fb59700bfb59700d5
:10214000d8b79f00e9b79f00fab79f008bbf9f00e9
:10215000470007004f06be004f05be004f04be00fb
:102160000080fa0000000600881f78001800200098
:10217000881f7800b8ff07008f87e9004f047800b8
:1021800000000600801feb00b3ff07008f87e90007
:1021900000000600889fbe008a9fbe004100070025
:1021a00008003d007a0007004300070018002000e7
:1021b0004600070008003d002f0007000004eb0068
:1021c000050037000004eb004000070002003d005e
:1021d0002900070018002000e3ff0700e00f54006b
:1021e000010032003e0007004f05be004f04be0054
:1021f00000000600889fbe008a9fbe008c1f7800ea
:102200002800070006003d00610007001c002000b8
:10221000290007003900070006003d0004003700d0
:102220000006eb002900070002003d0058000700ef
:1022300012000700d3ff0700e00f56000100320034
:10224000270007004f0678004f05be004f04be0070
:1022500000000600010007000000060090b79f0084
:10226000a1b79f00b2b79f00c3b79f000000060050
:1022700007000700000006004500070004025400a4
:1022800085825c0006035d0087835d000000060018
:102290001fb09700afb097003fb19700cfb1970044
:1022a00000000600e00f5000e08f5800e00f5900da
:1022b000e08f5900000006000000540081805c009f
:1022c00002015d0083815d0000000600e00f520006
:1022d000e08f5a00e00f5b00e08f5b00000006001b
:1022e0006022b8006033b8000000520081805a00bc
:1022f00002015b0083815b00000006000820e10012
:1023000009a8e1000ab0e1000bb8e10000000600f6
:102310004f2bde00deff07008683730085824200bc
:102320004f23de00a7b79f0086827200040242009e
:1023300095b79f00ffaa97004f2bde0085824200d1
:102340000602720084b79f006faa97004f23de0039
:102350000402420086827200f5af9f004f18de0033
:1023600000027200caff0700e4af9f0000004000b7
:102370008180480002014900838149000802be00b3
:102380000a03be00b5ff070000fe2f000000060094
:102390006044b8006055b80000000600889fbe0089
:1023a0008a9fbe008c1f78000006eb00e00f5000f3
:1023b000e08f5800e00f5900e08f590007003d0002
:1023c0006044b8006055b8001c00200000005400b4
:1023d00081805c0002015d0083815d00e00f52009e
:1023e000e08f5a00e00f5b00e08f5b0007003d00cc
:1023f0006044b8006055b8000c00a200040254000c
:1024000085825c0006035d0087835d00b7000700de
:10241000e00f5600060032006022b8006033b800ba
:102420000000520081805a0002015b0083815b0042
:102430004f0678004f05be004f04be0000000600a6
:102440006022b800060220000000d0008180d20087
:102450000482d2008582d2000000a0000202520055
:1024600083825a00030031000202420083824a0044
:102470000000a1000603e900f3ff3a000000060097
:10248000020ab900001bb9000200b8008100420036
:102490008100430000000600680447000294be006b
:1024a0000094be00fc0447008694be008494be00e5
:1024b0000900780066000700080078006400070043
:1024c00099007800814f70000b003b000800be00af
:1024d000a80007004f00b10003003700f3ff2700fa
:1024e000f2ff2f006110b9004f06be004f05be007d
:1024f0004f04be000080fa00000006001800200013
:1025000057002000080453000d003d000600200085
:1025100097fc2f000740e1001e0034008482720007
:10252000610260008301d1000281d3008180d30069
:102530000080d3000804e800f8ff3a0047002000bc
:102540006104600005047400040464000d0032009e
:1025500061004000e080480060014900e0814900de
:1025600003b8a500070032000603e8006538e10063
:1025700004003a008301d1000281d3008180d3009e
:102580000080d300f87f20000830e1000300350010
:10259000080378006000b8006011b8004433dd0023
:1025a000f300b2008301730000000600889fbe00a4
:1025b0008a9fbe008c9fbe000404be000605be00bc
:1025c000809fbe00829fbe0078000700040678004e
:1025d0000800be000a01be007400070084067800ef
:1025e0004f03be004f02be008d4f76007fb09700b4
:1025f00013003300f0ff2f008b8f6b0006003b00b1
:102600000d0666000c00a7000a00370007f0a600c0
:10261000100020000a003700880f5200898f5a00ee
:102620008a0f5b008b8f5b000300390010002000d5
:1026300001003e000000200007f0a7000000ea00b3
:102640004f06be004f05be004f04be00000006004e
:10265000800078005002be005003be004439de0006
:10266000f700b200f37f200003016100090032008f
:102670000218e10016003a00850172008301730020
:10268000838173000008200015003a0040002000fc
:10269000130037008501720083017300838173008a
:1026a00005003a0004a8be0006a8be0010002000e5
:1026b0000b0037000201e9000402420085824a0053
:1026c00006034b0087834b000748a300f9ff320045
:1026d0000740a00004a8be0006a8be0020002000fd
:1026e000800098009200980000000600889fbe00bd
:1026f0008a9fbe008c9fbe000404b8000506b80087
:102700008904460060854e000606b8000a054600aa
:10271000e0854e000706b8008b054600040eb800a1
:10272000890446000a854e00e0854d00050eb8007c
:102730000a0546008b854e00060eb8008b05460044
:102740000416b8000a0546008b854e000516b80031
:102750008b054600041eb8008b0546000800be002d
:102760000a01be004f06be004f05be004f04be006a
:1027700000000600e48240001078a3000700320049
:10278000640240001178a3003400be001401be00b2
:10279000040032000330a700000006003500be0030
:1027a0001501be000330a0000000060005ff270051
:1027b00005826100070032000428e10001003200b8
:1027c000240005000600070001003a00440005004f
:1027d0000408050002000700f9ff3a001400050094
:1027e0006f826100810270008502710085027200b3
:1027f00000000600421188000011880011118800b5
:102800000000060080a320000000fa006881570045
:10281000cfb89700e90007000080fa00000006002a
:10282000881f7800000478003800900000027800cb
:102830001420b200e10f520005003a000002eb0044
:102840001404980028029000040c78001900370046
:1028500080027800242020002520b2000000eb0038
:10286000848f520016003a00a8009000808f50001c
:102870001300320018019000800f51001000320048
:102880004800900007fa070018029000840f5000db
:1028900003003200380290000403b30034049800af
:1028a000380090000002eb00140498002802900009
:1028b000040c78000002b200010032000080eb003e
:1028c0004f04780000000600d4c6b3000800fa00e8
:1028d000889fbe000084fb008a9fbe00844f50008a
:1028e00034003600298b20004b062000110009001f
:1028f0000b84d800720040004300dd0000804400db
:10290000810578006022b8000600200007fe230041
:10291000aa0020005001be004000be00a3fb07003b
:102920000002be00110009008a85d80080057800e9
:10293000e9854500c35ddd008b8544000203be00d0
:1029400084bf9f0095bf9f00a6bf9f00b7bf9f0099
:102950003b02be002b03be000fb897009fb8970044
:102960002fb99700bfb9970090fb07000002be0087
:10297000110009000a84d800010478004344dd00f6
:10298000888444000203be0084bf9f0095bf9f005f
:10299000a6bf9f00b7bf9f003902be002903be003b
:1029a0000fb897009fb897002fb99700bfb997004d
:1029b0001d003700ea4f500013003600aa00200027
:1029c000298b2000110009000a84d8000105780035
:1029d000690440004355dd004344dd0008844400a1
:1029e0008a8444006022b8000600200007fe23000d
:1029f0003800be002801be006cfb07003902be0093
:102a00002903be0008003700248b20004344dd006a
:102a1000080442006022b8000600200007fe2300e0
:102a20003800be002801be0060fb07004f05be0055
:102a30004f04be000080fa0000000600d4c6b300b8
:102a40000800fa00889fbe008a9fbe00e04f500039
:102a500022003d000040ea000004fb00844f5000cb
:102a60000a00340044062000a900200011000900db
:102a70000404d8002a8b2000110009008900d80026
:102a8000e9004000c308dd0020003700ea4f500095
:102a90000f003400a4002000110009000404d80035
:102aa000248b2000690040004300dd00000042004c
:102ab000430cdd00080242005001be004000be0091
:102ac0005403be004402be0038fb07003700370045
:102ad0004344dd00248b2000310037000004fb005c
:102ae000844f50002300340044062000a900200039
:102af000110009000404d8002a80200011000900f8
:102b00008900d800e9004000c308dd0081004500cd
:102b10008b0920008a8545003102be002103be00da
:102b20003b00be002b01be0020fb07000002be00e0
:102b3000110009000904d800010478004344dd00b5
:102b4000080545000203be0084bf9f0095bf9f009b
:102b5000a6bf9f00b7bf9f003a02be002a03be0077
:102b60000fb897009fb897002fb99700bfb997008b
:102b7000d5ff3700ea4f500007003400a4002000c2
:102b8000110009000404d8002480200069004000de
:102b90004300dd00c5ff37004344dd0024802000f2
:102ba000080442003800be002801be004f05be00e8
:102bb0004f04be000080fa0000000600ef05b000e0
:102bc000889fbe008a9fbe008c9fbe0000067800d2
:102bd0008e1f78000007eb00e19f9f0082af9f00ef
:102be0006000b8006011b80080a79f0091a79f0007
:102bf000a2a79f00b3a79f00d9053700ef989700c1
:102c000054c2b3008100e800e19f9f00844f500050
:102c100006003a00810278008006eb0007c3b3008b
:102c200000c2b300b1c2b3000e0037003c029000f6
:102c30000404b200040032001c027800004a78004c
:102c4000040ee800050037000000fb008c0078004f
:102c5000cf050700e10f4000c10532000e07e80074
:102c6000bf05370005037800d2c2b30035427800b3
:102c7000824f52000900320005003c00804f520094
:102c800008003200814f52000c003a000700370064
:102c9000874f520009003a00060037000d30a000af
:102ca000f0ff37000d00a000eeff37000d10a00070
:102cb000ecff37000d20a000eaff3700e28266003b
:102cc000010032000d00a100e88266000100320020
:102cd0000d20a1008402fb000503b100e98f520022
:102ce0000d003e00860278008003eb003502fb00f9
:102cf0006a3bb9000403b100860342001502fb00e1
:102d0000050378000403b100e90f5200f7ff360015
:102d100097b79f000a0037008002eb0095b79f002d
:102d2000a5c2b300854f520005003a008fab970053
:102d30000603e8004700780087af9f0090b79f0028
:102d4000e4c2b300964f120017003a000de0a00055
:102d500064425200d64f120003003200060278008f
:102d60008003eb00090037000fa997000603e80075
:102d7000c201780082af9f00d3af9f00c7c6b300e7
:102d80000d0037006a3bb9008683420004037800d7
:102d9000b402fb000503b100e98f5200f9ff3600d1
:102da000d7af9f00f5ff37000002eb000dc0a00079
:102db000d4af9f00f1ff37008602780035427800db
:102dc00005037800874f52002d003200e59f9f00d9
:102dd000c5c6b300854f520014003c00e8c2520043
:102de000854f52002400320009003c00ecc2520022
:102df000854f52002e003200ebc24200854f520038
:102e00009a003200e04f52005a053200b8003700f5
:102e100065c6b300854f52001f003200e3c2420076
:102e2000854f5200b2003a001300370035c7b30097
:102e3000854f52002200320007003c00e4c25200dd
:102e4000854f5200170032008542e800854f52003e
:102e5000a7003a001600370055c7b300854f52004f
:102e6000a8003200e3c24200854f5200a0003a00a1
:102e7000e4579f0010003700e4579f00a30037007d
:102e8000f0826600040120000100320004002800e6
:102e90008d067200c8ff3700e4579f000da0a00008
:102ea0009a003700e4579f000d60a000970037009c
:102eb000e4579f000d50a0000d70a0009300370054
:102ec0008faa9700e4579f004502780085af9f00c6
:102ed00004047800e00f520001003a0048a22000ec
:102ee000880278000002eb00010037000402e800cd
:102ef00065437a00e04f5300fcff3a0084047800f9
:102f00005fab9700e00f530003003200890f5300be
:102f100001003100860478000002eb009fb39700a7
:102f2000898f53000100360009825300e88666004d
:102f3000ddaf9f000d007800e00f50002c003a003c
:102f40008406780004c2b30010003700bc02900071
:102f50000504b200040032009c027800844a780024
:102f6000050ee8000700370084bf9f008c00780042
:102f700000022000060507000fba9700e10f40008d
:102f8000010032000e07e8008d06e900e08f5600d0
:102f9000eeff3a000082eb00150037003c02900083
:102fa0000404b20009003200080278001c03780013
:102fb000b4427800054b780004047800060ee8005f
:102fc000e0cf520008003a000a00370008027800fb
:102fd0008c0078003400fb0004047800ec04070047
:102fe000e10f4000030032000e07e8000100370047
:102ff00084067800090278008404e900e00f52009a
:10300000e6ff3a000d027800dfa89700e08f50003d
:10301000d30432008406780004c2b30010003700e5
:10302000bc0290000504b200040032009c0278004b
:10303000844a7800050ee8000700370084bf9f002f
:103040008c00780000022000d10407000fba97001e
:10305000e10f4000010032000e07e8008d06e90094
:10306000e08f5600eeff3a00bd0437000fa997002d
:10307000f08266004202780082af9f000400780070
:10308000cf80de00010178008201780090af9f00c0
:10309000a1af9f00b2af9f00c3af9f004800de000a
:1030a000480add0000007200e0579f00e08f5200e8
:1030b00009003200e04f500007003200e14f4000ad
:1030c00005003200afd29700f0579f00855f9f0048
:1030d00029002000030037002fd39700190020009b
:1030e000f6579f0078f92f000f04440084ff370043
:1030f000e4579f0068f92f000f04440019002000d6
:103100007fff3700e4579f000d0cb30004702000d0
:103110000482660065023200040021000482660019
:103120000200320067002000d7af9f007082660067
:10313000090032000faa97004401be004400be00ff
:1031400084af9f0090af9f00a1af9f00b2af9f00e0
:10315000c3af9f000a0037008faa97004500be004a
:1031600085af9f0006fa07000002be000203be0002
:1031700094af9f00a5af9f00b6af9f00c7af9f0061
:103180006022b8006033b8001fa89700afa897006e
:103190003fa99700cfa9970018fa0700e00f500049
:1031a0000a003d001fa89700afa897003fa997000d
:1031b000cfa9970003f0a20090af9f00a1af9f009e
:1031c000b2af9f00c3af9f003d00b3000002eb0011
:1031d0001fa89700afa897003fa99700cfa9970015
:1031e000d48f9f006022b8006033b80008fa07004f
:1031f000e00f500034003200a4f92f000f0242000b
:103200001fa89700afa897003fa99700cfa99700e4
:1032100004fa07005f889700a40020000000e9007e
:103220006300b900110009000400d800d08f9f008e
:10323000e00f500002003d000000e900d08f9f0029
:103240005f8c97000840ea00fcfd07001faa97006a
:10325000afaa97003fab9700cfab970053f9070099
:103260000002be000203be0084a79f0095a79f0036
:10327000a6a79f00b7a79f006022b8000600200005
:1032800007ff2300ddf90700e00f500002003d00ba
:103290000804e9000b0037006022b8000600200097
:1032a000470224000fa097009fa097002fa197002e
:1032b000bfa19700f8f90700e00f500002003500a9
:1032c0000804e800d88f9f00dfaa9700f88f52000b
:1032d0000f003c00054078007bfd07000002be00a7
:1032e0000203be001fa89700afa897003fa9970050
:1032f000cfa99700edf907000002be000203be004f
:1033000094af9f00a5af9f00b6af9f00c7af9f00cf
:103310005f8c9700e90f540015003c006022b80054
:103320006033b8001fa89700afa897003fa9970087
:10333000cfa99700b6f90700e00f50003200320025
:103340001fa89700afa897003fa99700cfa99700a3
:1033500053fa0700e00f5000e08f5800e00f5900cb
:10336000e08f590028003a00e10f54002600340095
:103370000400200005002e00b6e022001701240002
:103380000fa097009fa097002fa19700bfa19700c3
:103390009af90700e00f500002003d00730454004a
:1033a0000100370072045400d88f9f002f589700f7
:1033b000a2fd07000002be000203be001fa8970086
:1033c000afa897003fa99700cfa9970084a79f00b7
:1033d00095a79f00a6a79f00b7a79f0061fa0700c7
:1033e0002ffa07000205be000004be006000b8000e
:1033f0006011b80090af9f00a1af9f00b2af9f00d7
:10340000c3af9f00170037001fa89700afa8970011
:103410003fa99700cfa9970021fa07000205be0037
:103420000004be00a9fa07000002be000203be00ad
:103430001fa89700afa897003fa99700cfa99700b2
:10344000cdfa07000002be000203be0094af9f0049
:10345000a5af9f00b6af9f00c7af9f000002eb0073
:10346000d48f9f00a196200010c0b3000800370041
:103470003102be003103be000440e10005c8e10096
:1034800006d0e10007d8e100030039000040e80061
:10349000f44f5000f6ff3a009fb297005f8a970002
:1034a0005fab970004825200e0579f0086025200f3
:1034b0000002fb000482520094b79f00e00f53000b
:1034c000020032000402e90094b79f0063826600a4
:1034d000030032009fb397008703e90097b79f006e
:1034e000648266004500320062826600e182660006
:1034f000e00f5200110032003c0290000404b200c0
:10350000080032001c037800b4c2b300e08f520000
:103510000100320004c2e800044b7800060ee80007
:1035200015003700b0022000e08f52000100320089
:103530000080e8008c0078000c003700e08f52001b
:10354000200032003c0290000404b200050032006a
:103550009c02780004c2b300844a7800050ee8009b
:10356000050037008c007800000220008803070067
:10357000e10f4000130032000e07e8001100370091
:103580003c0290000404b200040032001c027800e7
:10359000054a7800040ee80007003700f5b79f00e1
:1035a0008c0078000003200079030700ffb2970029
:1035b000e10f4000010032000e07e8008904e90035
:1035c00006003700c8a79f00d9a79f00eaa79f0061
:1035d000fba79f009fb4970005c3b300e08f540082
:1035e000e7ff3c0099b79f004fa49700dfa4970026
:1035f0006fa59700ffa597006e00370068826600f0
:103600001f003a00110037003c0290000404b20091
:10361000040032001c027800054a7800040ee8001d
:1036200007003700f5b79f008c00780000022000eb
:1036300057030700ffb29700e10f4000010032007e
:103640000e07e8008904e90006003700c8a79f00bc
:10365000d9a79f00eaa79f00fba79f009fb49700f0
:1036600005c2b300e08f5400e7ff3c0099b79f000c
:103670004fa49700dfa497006fa59700ffa59700c0
:1036800062826600e1826600e00f520011003200a3
:103690003c0290000404b200080032001c037800d1
:1036a000b4c2b300e08f52000100320004c2e8004f
:1036b000044b7800060ee8003d003700b002200001
:1036c000e08f5200010032000080e8008c0078009a
:1036d00034003700e08f5200360032003c02900088
:1036e0000404b200050032009c02780004c2b3005a
:1036f000844a7800050ee8002d0037008c00780021
:1037000000022000270037003c0290008502fb00e9
:103710000404b2001300320022962000c32add0008
:10372000850241009c0078005503be004502be00a2
:10373000c1a79f000800be000a01be008afa070068
:10374000a4002000050020006033b8008dfa0700b7
:103750004fa2970005c3b300054a4000040ee800dd
:103760001300370026962000c32add00850243009f
:103770000800be000a01be005503be004502be009f
:1037800079fa0700a4002000050020006033b8008b
:103790007cfa07008c00780004032000000242003d
:1037a00004007800fa020700e10f40000100320037
:1037b0000e07e8006f5297008442e900e5579f002a
:1037c000e04f5200d0ff3a00110037003c02900059
:1037d0000404b200040032001c027800084a780099
:1037e000040ee800050037008c007800000320007c
:1037f000e7020700e10f4000010032000e07e80079
:103800005f8a97000402e900d48f9f00010037000f
:1038100008c3b3005f8a9700e00f5200ebff3c0043
:10382000dfab9700f28f53000300340024c1b300d4
:10383000e4579f00020037002fd89700e0579f0001
:103840006f529700dfa897000403fb000683500027
:10385000c6a79f00e04f52000e0032003c029000cd
:103860000404b200050032001c027800e5c2b30077
:10387000054a7800040ee800050037008c00780047
:10388000e0022000c2020700e10f40000100320008
:103890000e07e8006f50970068fc07000002be00aa
:1038a0000203be001fa89700afa897003fa997008a
:1038b000cfa99700bdf70700f9f8070035003700da
:1038c0003c0290008502fb000404b20013003200a9
:1038d00023962000c32add00858241001c01780068
:1038e0005503be004502be00d2af9f000800be00d7
:1038f0000a01be001cfa0700a400200005002000f9
:103900006033b8001ffa07005faa970005c3b30031
:10391000054a4000040ee8001300370026962000f8
:10392000c32add00850243000800be000a01be0074
:103930005503be004502be000bfa0700a40020009c
:10394000050020006033b8000efa07008c007800f4
:103950000403200000024200040078008c020700eb
:10396000e10f4000010032000e07e800ef5397001e
:10397000209620000702fb004322dd0004024000e5
:103980000800be000a01be005403be004402be008f
:10399000fcf907006f5297000205be000004be004c
:1039a0008442e900e5579f00e04f5200c4ff3a000f
:1039b00011003700bc0290000504b2000400320080
:1039c0009c027800844a7800050ee8000700370062
:1039d00084bf9f008c007800000320006c02070069
:1039e0000fba9700e10f4000010032000e07e80017
:1039f0008904e90006003700cfa49700d0af9f00ec
:103a0000e1af9f00f2af9f0083b79f0004c3b300f4
:103a1000e08f5400e7ff3a005fac9700efac9700ef
:103a20007fad97008fb59700e88666004c023200a4
:103a30009fb09700e08f5000490234000802be009a
:103a40000a03be000dc2b300810478003c00900060
:103a50000004b200040032001c0078000d48780019
:103a6000000ee8000d00370084bf9f00f5b79f00ef
:103a7000d6b79f00e7b79f008c00780000022000b7
:103a8000430207000fba9700ffb297005fb3970099
:103a9000efb39700e10f4000010032000e07e8008d
:103aa0008904e900e9ff3a002d0237008d02780011
:103ab000050cb2002a003a00e08f560005003d00d8
:103ac0000fa997004205be004204be0082af9f00ce
:103ad00016003700708266000e0032000fab9700b0
:103ae0004602be00c4979f00d5979f0086af9f00f7
:103af000160290004fa2de00e4979f00f4979f000b
:103b00004f949700df9497006f959700ff9597006b
:103b1000060037000fa897004004780080af9f0090
:103b2000cfc4de00090578008a057800e00f540054
:103b3000e08f5c00e00f5d00e08f5d0023003d0042
:103b40006022b8006033b8003d00b30008045200a2
:103b500089845a000a055b008b855b001b003700d7
:103b6000e08f560005003d008fa897004105be007c
:103b70004104be0081af9f0014003700f082660050
:103b80000c0032008faa97004501be00a4979f0049
:103b900082979f0093979f00b4979f0085af9f00e7
:103ba0000f9497009f9497002f959700bf959700cb
:103bb000060037008fab97004704780087af9f005f
:103bc000090020000a0020000b0020005fa89700d9
:103bd000e00f500009003a0011002000d1af9f0013
:103be000e00f5400e08f5c00e00f5d00e08f5d00af
:103bf000020032000001eb00d2af9f008d0178007f
:103c000004042000030cb20093af9f00848f510086
:103c10002c00320003003c00e08f5100080032000d
:103c20003c003700040820009faa9700848f5200b0
:103c300010003200040c2000848f520035003a003e
:103c4000a196200010c0b3003102be003103be00b7
:103c50000440e10005c8e10006d0e10007d8e1001a
:103c60002b0039000040e800f44f5000f6ff3a0006
:103c70002700370010c0b300040120000500200019
:103c80006033b8000440e10005c8e10006d0e1005f
:103c900007d8e1001e003900410020000402d000d6
:103ca0008582d2000683d2008783d2008100e9009a
:103cb000faff3a000040e800f04f5000f1ff3a00f0
:103cc0001300370010c0b30084002000050020005e
:103cd0006033b8000440e10005c8e10006d0e1000f
:103ce00007d8e1000a003900320020000402d000a9
:103cf0008582d2000683d2008783d2000201e900c8
:103d0000faff3a000040e800f54f5000f1ff3a009a
:103d1000e0579f00ef519700dfaa97000302fb00d6
:103d2000850f520002003d00e5579f000400370058
:103d30005fab9700840f530001003d00d4af9f009c
:103d40009fb39700e08f5300040032006382660047
:103d5000020032008703e90097b79f0004002400a7
:103d600004826600090032001fb09700dfa89700a8
:103d7000810f5000030034000100500090b79f00f5
:103d8000020037000001eb0092b79f00ef5197004f
:103d90008002eb000302fb00c5a79f001fb3970042
:103da000840f53000200340004025300c4a79f0094
:103db0006482660045003200e2826600618266002d
:103dc000e08f520011003200bc0290000504b200e6
:103dd000080032009c027800b6c2b300e00f520027
:103de0000100320006c3e800864a7800050ee800ac
:103df00015003700b0022000e00f52000100320031
:103e00000080e8008c0078000c003700e00f5200c2
:103e10000e0032003c0290000404b20005003200a3
:103e20001c02780005c2b300054a7800040ee800c1
:103e3000050037008c0078000002200054010700c4
:103e4000e10f4000010032000e07e800cfa3970009
:103e5000e08f53006300320098b79f00a9b79f001e
:103e6000bab79f00cbb79f0004c3b30087047800a4
:103e7000bc0290000504b200040032009c027800ed
:103e8000844a7800050ee8000700370084bf9f00d1
:103e90008c007800000320003d0107000fba970056
:103ea000e10f4000010032000e07e8008904e9003c
:103eb000efff3a00c9a79f001fb49700afb4970067
:103ec0003fb59700cfb5970046003700cfa09700c9
:103ed000e08f50001e003200688266001c003a002d
:103ee00098b79f00a9b79f00bab79f00cbb79f00b4
:103ef000cfa4970004c2b300bc0290000504b20036
:103f0000040032009c027800844a7800050ee80024
:103f10000700370084bf9f008c007800000220005b
:103f20001b0107000fba9700e10f400001003200ab
:103f30000e07e8008904e900efff3a00c9a79f00d7
:103f40001fb49700afb497003fb59700cfb5970067
:103f5000e282660061826600e08f5200110032004a
:103f6000bc0290000504b200080032009c027800f8
:103f7000b6c2b300e00f52000100320006c3e800f1
:103f8000864a7800050ee80015003700b0022000d0
:103f9000e00f5200010032000080e8008c00780041
:103fa0000c003700e00f52000e0032003c0290007f
:103fb0000404b200050032001c02780005c2b30000
:103fc000054a7800040ee800050037008c007800f0
:103fd00000022000ee000700e10f40000100320067
:103fe0000e07e800dfa89700259620000102e900ef
:103ff00098b79f00a9b79f00bab79f00cbb79f00a3
:104000004221dd006323b900929f9f004322dd001f
:104010008601780085024200839f9f00f59f9f00e4
:10402000708266008d027800f48f9f000502b20056
:10403000e58f9f00a3003700dfa897001fa9970016
:104040008100e90003042000d1af9f00830f5100dd
:104050007300320003003c00e00f51000800320002
:104060007e003700040820009faa9700848f52002a
:1040700056003200040c2000848f520077003a0072
:10408000e08f56001f003d007f9b97001fb09700f8
:10409000afb097003fb19700cfb197003604be0094
:1040a0002605be000802be000a03be002ef8070067
:1040b0000802be000a03be00e0579f000000fb009c
:1040c000cf80de000101780082017800b3f807009c
:1040d0001fb29700afb297003fb39700cfb39700de
:1040e0000002520081825a0002035b0083835b005e
:1040f00094b79f00a5b79f00b6b79f00c7b79f00b2
:104100002e003700ff8a9700e08f52002200320015
:104110007f9b97001fb29700afb297003604be0096
:104120002605be000400be0084bf9f00f5b79f00b7
:104130000801be00c2f807000801be00e0579f005a
:104140000000fb00cf80de00cdf807000fba97001b
:10415000ffb297000001520081815a000002eb007b
:10416000a29f9f00b39f9f00d49f9f008001eb0000
:10417000c39f9f002f989700bf9897004f99970073
:10418000df99970090b79f00a1b79f00b2b79f003b
:10419000c3b79f0009003700ff9897001fb1970031
:1041a00011027800110009000481d800a400200049
:1041b000110009000480d800e1579f00ef519700db
:1041c0000343b000e3579f002400370034a12000d0
:1041d000ef8a9700e08f52000100320024a02000f7
:1041e0001fb09700afb097003fb19700cfb19700d5
:1041f0001f9b97000603e900050033008301d100ef
:104200000281d3008180d3000080d300f9ff370002
:104210006f00600064407800e0579f000f00370097
:104220001fb29700afb297003fb39700cfb397008c
:104230000f9897000000e900050033008703d100c4
:104240000683d3008582d3000482d300f9ff3700b0
:10425000674262000443b000e4579f003c029000b4
:104260000404b200070032009c0278006f529700ed
:10427000844a7800050ee800e04f520007003a003b
:1042800007003700ef5097000100fb008c0078001a
:104290003f000700e10f4000010032000e07e80078
:1042a0001f9997008f9997007f9a9700640151009a
:1042b000e381510068025200929f9f00839f9f00fc
:1042c000f49f9f00dfaa9700e08f52005aff3a0048
:1042d0001fb49700afb497003fb59700cfb59700d4
:1042e000e88666001e0032004fa39700e00f5300df
:1042f0001b0034000802be000a03be00cfa49700d2
:104300000dc2b3003c0090000004b2000400320073
:104310001c0078000d487800000ee8000d00370002
:1043200084bf9f00f5b79f00d6b79f00e7b79f00f7
:104330008c00780000022000150007000fba9700db
:10434000ffb297005fb39700efb39700e10f400013
:10435000010032000e07e8008904e900e9ff3a0095
:10436000ef9b970017407800e0579f00e04f500008
:1043700022fa3a000e0078004f0778004f06be0080
:104380004f05be004f04be00ef05b100000006005f
:10439000889fbe00010478008084eb003802900002
:1043a000e20262003b0032000403780098029000b1
:1043b0000620b20002003a00e08f520035003a00b9
:1043c0000490a0008004780034049800f90fb20033
:1043d000e08f520002003a00a8029000050c78001d
:1043e000ea8f540005003a000408b20003003a00c6
:1043f00088007800d0002000e5ff07001802900038
:10440000d8029000850f52000b0032000402e80031
:1044100015c0b3001404980018027800094a780007
:10442000040ce80044a52000054a7800ea8f5400f7
:1044300018003a000500370009407800880078002d
:10444000170007008004780012003700380290003f
:104450000410b2000f00320018019000a800900074
:10446000480090000ff3070018029000840f5000de
:1044700004003200380290000403b30034049800b2
:104480008084eb000002eb001404980028029000e6
:10449000040c7800090078004f04be0000000600fc
:1044a0000200fa00889fbe0001047800a0ff9f0070
:1044b00038029000840278000504b2000200320045
:1044c0000000fb0035003700e202620005003a0000
:1044d0000403b30015049800340498000080eb0036
:1044e0002e003700d8049000e08f540006003a00f8
:1044f00012002000e680570048009000e9f2070013
:104500001904980023003700a8029000e08f5200a1
:1045100008003a0085a520000430a000250498007a
:10452000050c7800340498002500200055049800fc
:104530001504980018019000a80090004800900011
:10454000d8f20700280290008082eb001504980042
:10455000affa9700054a7800040ce8002ffa97009c
:10456000ea4f52000b003a00380290000410b200eb
:104570000800320018019000a80090004800900048
:10458000c8f207000002eb00a80290001404980093
:10459000050c78002ffa97000400fb004f04be00c2
:0845a0000080fa000000060093
:020000040000fa
:1045a80046780000203d0000200000004978000007
:1045b800203d00002000000044780000203d00005d
:1045c8002000000050780000203d0000200000007e
:1045d8007365000074200000782000003d20000072
:1045e80025640000004b0000692000003d20000009
:1045f80025660000004b0000703d000020250000eb
:104608002e340000662000004b640000203d0000ae
:10461800202500002e340000662000000050000015
:104628006f730000203d00002000000020200000e3
:104638002020000020200000202000002020000072
:084648000025000064000000e1
:020000040000fa
:104650000000fa0062002000014020000000280055
:1046600064f8070000802e003100200082ef070070
:104670000080fa00000006000200fa00004f7800f7
:10468000010037000000000023c2bf00624060004c
:104690000004e000fbff3a001e80fb0020118800b0
:1046a000010037000000000023c2bf00614060002d
:1046b0000004e000fbff32000080fa00000006006a
:1046c0000600fa0010079800414798000040eb00f0
:1046d000004f7800070037001e80fb008000780044
:1046e0001e0090000080400010407800e2ff0700ac
:1046f0001e4fe8004e4090009e4f1000f6ff39001c
:104700000080fa00000006000200fa00004f780066
:10471000c0c7b300d8ff07001e407800d6ff0700cf
:104720000080fa00000006000000fa00c0c7b300d5
:10473000d1ff07000040eb00cfff07000080fa0028
:10474000000006000200fa00000f7800c0c7b300a6
:10475000c9ff070010c0b300c7ff07001e007800a4
:10476000c5ff07000080fa00000006000200fa0002
:10477000000f7800c0c7b300bfff070020c0b30020
:10478000bdff07001e007800bbff07000080fa0095
:10479000000006000800fa00000f780011079800da
:1047a0002207980033079800c0c7b300b2ff070084
:1047b00030c0b300b0ff07001e007800aeff070056
:1047c0001e009000acff07002e009000aaff07001b
:1047d0003e009000a8ff07000080fa0000000600dd
:1047e0000000fa00c0c7b300a3ff070040c0b30039
:1047f000a1ff07000080fa00000006000800fa0090
:10480000000f7800110798002207980033079800de
:10481000c0c7b30098ff070050c0b30096ff070061
:104820001e00780094ff07001e00900092ff070012
:104830002e00900090ff07003e0090008eff0700c2
:104840000080fa00000006000000fa00c0c7b300b4
:1048500089ff070060c0b30087ff07000080fa00ef
:10486000000006000200fa00000f78001e00e000c1
:1048700002003c0010002000000f780060002000c3
:104880009e0f10000200340060002000000f78002e
:10489000c0c7b30078ff070070c0b30076ff070001
:1048a0001e00780074ff07000080fa000000060078
:1048b0000000fa00c0c7b3006fff070080c0b3005c
:1048c0006dff07000080fa00000006000200fa00f9
:1048d000000f7800c0c7b30067ff0700a0c0b30097
:1048e00065ff07001e00780063ff07000080fa00e4
:1048f000000006000800fa00000f78001107980079
:104900002207980033079800c0c7b3005aff07007a
:10491000b0c0b30058ff07001e00780056ff070024
:104920001e00900054ff07002e00900052ff070069
:104930003e00900050ff07000080fa0000000600d3
:104940000a00fa00000f780011079800220798006b
:104950003307980044079800c0c7b30046ff07001c
:10496000c0c0b30044ff07001e00780042ff0700ec
:104970001e00900040ff07002e0090003eff070041
:104980003e0090003cff07004e0090003aff0700f9
:104990000080fa00000006000a00fa0010079800e4
:1049a000210798003207980043079800c0c7b3005a
:1049b00031ff0700d0c0b3002fff07001e0090009a
:1049c0002dff07002e0090002bff07003e009000f7
:1049d00029ff07000000eb00000f780007003700f8
:1049e0001e007800800078004e009000008040009b
:1049f0001040780020ff07001e0fe800f0012000a3
:104a00009e0f1000f6ff34000080fa000000060040
:104a10000a00fa00000f780011079800220798009a
:104a20003307980044079800c0c7b30012ff07007f
:104a3000f0c0b30010ff07001e0078000eff070053
:104a40001e0090000cff07002e0090000aff0700d8
:104a50003e00900008ff07004e00900006ff070090
:104a60000080fa00000006000600fa00000f78003f
:104a70001107980022079800c0c7b300fefe070088
:104a800000c1b300fcfe0700000820009e0f1000cc
:104a90000300340000c8b300f7fe0700070037002a
:104aa0001e00e00003003d000040eb00f2fe0700a6
:104ab000020037001e007800effe07009e00900005
:104ac00000042000808f50000300340000c4b300b5
:104ad000e9fe0700080037001e0090000000e0001b
:104ae00003003d000040eb00e3fe0700020037003a
:104af0001e009000e0fe07002e009000e10f500025
:104b0000060032002e0090000000e000030032009a
:104b100010c0b300d8fe0700020037002e0090003e
:104b2000d5fe07000080fa00000006000a00fa0027
:104b3000000f7800110798002207980033079800ab
:104b4000044f9800c0c7b300cbfe070020c1b300dc
:104b5000c9fe07001e007800c7fe07001e00900077
:104b6000c5fe07002e009000c3fe07003e00900027
:104b7000c1fe07000e489000bffe07000080fa004b
:104b8000000006000000fa00c0c7b300bafe07002c
:104b900040c1b300b8fe07000080fa000000060024
:104ba0000000fa00c0c7b300b3fe070050c1b30055
:104bb000b1fe07000080fa00000006000e00fa00b7
:104bc00010079800210798003207980043079800c3
:104bd0005407980065079800c0c7b300a6fe0700f9
:104be00060c1b300a4fe07001e009000a2fe0700f3
:104bf0002e009000a0fe07003e0090009efe0700e1
:104c00004e0090009cfe07005e0090009afe070098
:104c1000ce0090005e0090000088b9008200200065
:104c2000110009000200d800000f78000000eb001e
:104c300010079800090037001e00900080007800df
:104c40006e00900000804000104078008afe07004f
:104c50001e0090000000e800100798001e00900061
:104c60009e0f5000f4ff35000080fa00000006009f
:104c70000400fa00000f780011079800c0c7b300c5
:104c80007dfe070080c1b3007bfe07001e00780098
:104c900079fe0700c0c7b30077fe070090c1b300dc
:104ca00075fe07001e00900073fe07000080fa00ea
:104cb000000006000400fa00100798001e00900093
:104cc000e80f500003003400800020001007980017
:104cd0000c0037001e0090000000e00003003c00c4
:104ce0001000200010079800060037001e009000fa
:104cf0004300dd00680f50009e0078001000200087
:0c4d0000dbff07000080fa000000060046
:020000040000fa
:104d0c00000800000200000000000000500a000033
:104d1c000200000002000000010000002c0a00004c
:104d2c002400000002000000560a000000560a0091
:104d3c000900000000020000580a000000580a0098
:104d4c000e02010000000000000000000000000046
:104d5c000602020000000000520a000002000000df
:104d6c00020000002c0a0000540a0000020000009f
:104d7c0000000000560a00000200000000000000c5
:104d8c00580a00000200000000000000020a0000a7
:104d9c002a000000020000003031320033343500ac
:104dac003637380039414200434445004600300054
:104dbc0031323300343536003738390061626300e4
:104dcc006465660000286e00756c6c00290000009c
:104ddc0062090000a00000000200000001000000b9
:104dec000000000000000a000000000000000000ad
:104dfc00006400000000000000000000e803000058
:104e0c00000000000000100027000000000000005f
:104e1c0000a08600010000000000000040420f00ce
:104e2c0000000000000080009698000000000000c8
:104e3c000000e100f50500000000000000ca9a0027
:104e4c003b00000000000000e40b540002000000d6
:104e5c000000e80076481700000000000010a500d4
:104e6c00d4e8000000000000a0724e0018090000f9
:104e7c00000040007a10f3005a0000000080c600c9
:104e8c00a47e8d000300000000c16f00f286230099
:104e9c00000000008a5d780045630100000064009a
:104eac00a7b3b600e00d000000e889000423c7009a
:104ebc008a00000002080000b000000002000000a0
:104ecc000000000000000000f03f000000000000a7
:104edc0000002400400000000000000000594000c9
:104eec0000000000000040008f40000000000000a7
:104efc000088c30040000000000000006af8400079
:104f0c0000000000008084002e4100000000000022
:104f1c00d01263004100000000008400d7974100cc
:104f2c00000000000065cd00cd4100000000200015
:104f3c005fa002004200000000801d00af1544007d
:104f4c000000000040593e0029460000000000000f
:104f5c000000f0007f0000000000000000f07f0067
:104f6c000000000000000000f07f000000000000c6
:104f7c000000f0007f0000000000000000f07f0047
:104f8c000000000000000000f07f000000000000a6
:104f9c000000f0007f0000000000000000f07f0027
:104fac000000000000000000f07f0000b2080000cc
:104fbc00b000000002000000000000000000000033
:104fcc00f03f00000000a0009999b9003f000000dc
:104fdc000040e1007a843f0000000000e04d6200d8
:104fec00503f00000000e000e2361a003f000000d5
:104ffc000080b500f8e43e0000000000a0f7c600f9
:10500c00b03e00000000a000f2d77a003e00000085
:10501c0000e08e0079453e0000000000e00b2e0001
:10502c00113e00000000e000df7cdb003d000000d2
:10503c000000a1009cc73b0000000000004c480091
:10504c00b439000000000000206ca1003700000003
:10505c000000000000000000000000000000000044
:10506c000000000000000000000000000000000034
:10507c000000000000000000000000000000000024
:10508c000000000000000000000000000000000014
:10509c000000000000000000000000000000000004
:0850ac000000000000000000fc
:020000040000fa
:1050b4000200fa00004f780011e1a9001021a900b4
:1050c40010c1a9000002eb003408880084088000a5
:1050d4000440a1000450a0008408880084e0a900d2
:1050e40094e0a90004fa2000640888001e427800b5
:1050f400e04f520008003a00d2e2a900c4ee2000ba
:10510400640d880044e72000540d880064002000ea
:10511400740d88000a0037001e427800e14f5200e7
:1051240007003a00d2c2a900c4ee2000340d880062
:1051340044e72000240d880064002000440d88000a
:1051440011e1a8000080fa00000006000600fa0041
:10515400881f7800004f78001207980023079800f2
:1051640018c0b30062662600630024001e0090008d
:10517400ae009000fcef070000027800e00f520040
:1051840001003c000044eb00e04f540034003a00be
:1051940018c0b3006266260063f623001e00900068
:1051a400ae009000f2ef070000027800e00f52001a
:1051b400010035000044eb00e04f54002a003a009f
:1051c4001e427800e04f520011003a000200200015
:1051d400833424001e009000ae00900086f0070087
:1051e4000002be000401be0000002000a1572400fc
:1051f400e1ef07000002be000400be00b2f00700a9
:105204000002be0004027800540d88001700370025
:105214001e427800e14f520014003a0002002000c0
:10522400833424001e009000ae00900072f007004a
:105234000002be000401be0000002000a1572400ab
:10524400cdef07000002be000400be009ef0070080
:105254000002be0004027800240d88000300370019
:105264000000000001003700000000004f04780037
:105274000080fa00000006000000fa00d822a9000d
:10528400d842a900d862a9000080fa0000000600f4
:105294000200fa00004f78001e427800e04f5200ee
:1052a40009003a004519800004fe2f0004826200c0
:1052b400f400b30044198800dc22a900dc42a800f1
:1052c400dc62a8000b0037001e427800e14f520058
:1052d40008003a004519800004fe2f000482620091
:1052e4009400b30044198800dc22a800dc42a90021
:1052f400dc62a9000080fa00000006000000fa0049
:105304002023a8000000000004198000610262004c
:10531400e00f5200fcff32002003a90004188000b3
:0c532400040078000080fa000000060081
:020000040000fa
:0200000401f009
:04000800ffff0000f6
:020000040000fa
:0200000401f009
:04000c00fbff0000f6
:020000040000fa
:0200000401f009
:04001000fdff0000f0
:020000040000fa
:0200000401f009
:040014007fff00006a
:00000001FF
