:020000040000fa
:080000000002040000000000f2
:020000040000fa
:100008007604000076040000760400007604000000
:1000180076040000760400007604000076040000f0
:10002800760400007604000076040000b6020000a2
:10003800760400007604000076040000f002000058
:1000480076040000760400007604000076040000c0
:1000580076040000760400007604000076040000b0
:1000680076040000760400007604000076040000a0
:1000780044030000760400007604000076040000c3
:100088007604000076040000760400007604000080
:100098007604000076040000760400007604000070
:1000a8007604000076040000760400007604000060
:1000b8007604000076040000760400007604000050
:1000c8007604000076040000760400007604000040
:1000d8007604000076040000760400007604000030
:1000e8007604000076040000760400007604000020
:1000f8007604000076040000760400007604000010
:1001080076040000760400007604000076040000ff
:1001180076040000760400007604000076040000ef
:1001280076040000760400007604000076040000df
:1001380076040000760400007604000076040000cf
:1001480076040000760400007604000076040000bf
:1001580076040000760400007604000076040000af
:10016800760400007604000076040000760400009f
:10017800760400007604000076040000760400008f
:10018800760400007604000076040000760400007f
:10019800760400007604000076040000760400006f
:1001a800760400007604000076040000760400005f
:1001b800760400007604000076040000760400004f
:1001c800760400007604000076040000760400003f
:1001d800760400007604000076040000760400002f
:1001e800760400007604000076040000760400001f
:0801f80076040000760400000b
:020000040000fa
:1002080076040000760400007604000076040000fe
:1002180076040000760400007604000076040000ee
:10022800760400007604000076040000b6020000a0
:10023800760400007604000076040000f002000056
:1002480076040000760400007604000076040000be
:1002580076040000760400007604000076040000ae
:10026800760400007604000076040000760400009e
:1002780044030000760400007604000076040000c1
:10028800760400007604000076040000760400007e
:10029800760400007604000076040000760400006e
:1002a800760400007604000076040000760400005e
:1002b800760400007604000076040000760400004e
:1002c800760400007604000076040000760400003e
:1002d800760400007604000076040000760400002e
:1002e800760400007604000076040000760400001e
:1002f800760400007604000076040000760400000e
:1003080076040000760400007604000076040000fd
:1003180076040000760400007604000076040000ed
:1003280076040000760400007604000076040000dd
:1003380076040000760400007604000076040000cd
:1003480076040000760400007604000076040000bd
:1003580076040000760400007604000076040000ad
:10036800760400007604000076040000760400009d
:10037800760400007604000076040000760400008d
:10038800760400007604000076040000760400007d
:10039800760400007604000076040000760400006d
:1003a800760400007604000076040000760400005d
:1003b800760400007604000076040000760400004d
:1003c800760400007604000076040000760400003d
:1003d800760400007604000076040000760400002d
:1003e800760400007604000076040000760400001d
:0803f800760400007604000009
:020000040000fa
:10040000efcf20000eff27000e0188000000000043
:10041000000020000000e000020032000001200087
:10042000200288000c000700a038210001002000f5
:100430001f000700000020000000e0000200320062
:100440000000020000000000600302000000000045
:100450000040da000000fe004440a9000001200036
:100460000000e0000300320000002000a00188002e
:100470004440a80000000600f03fb1000180b10038
:1004800006003500ee03090000000000403fb10007
:100490000180b100fbff3d001000b000203fb00024
:1004a0000200350000800900000000000000060086
:1004b00091018800800078000000eb0015003700f3
:1004c000e280400032a0b4009101ba00e280400016
:1004d00032a0b4009102ba00e280400032a0b40021
:1004e0000002eb00472bde00f507b200602ce100b4
:1004f00004003a000059eb008301e900fdff3e00d3
:10050000040037006128e100010032000082eb00a6
:10051000040007001101ba000200e000e8ff3a0001
:10052000000006003159ba008301e9000c003200d6
:100530002159ba008301e900080032000400e000fc
:1005400003003a00e280400032a0b400f5ff37001b
:1005500011d9ba008301e900faff3a008100e800ee
:10056000e180400032a0b40000000600849fbe007d
:10057000861f78003400f80004002000a4018800e1
:100580000000fa00141680004522de00614262007d
:100590000404a200614262000482fb006102620066
:1005a0004522dd0016168000f5fd2f008502630050
:1005b000050272001416880000000000144080003c
:1005c0000402e800144088008460a9000080fa005a
:1005d0003400f9004f0378004f02be0000400600cf
:1005e000849fbe00861f78003400f80004002000bd
:1005f000a40188000000fa00044080000402e80022
:10060000044088000440800061026200e00f520054
:100610000e003a00141680004422de00614262009f
:100620000404a200614262000482fb0061026200d5
:100630004422dd0016168000f5fe2f0085026300bf
:10064000050272001416880000000000244080009b
:100650000402e8002440880025408000843e2000f9
:10066000848f520002003a000002eb002440880010
:1006700084e0a9000080fa003400f9004f037800fc
:100680004f02be0000400600841f78003400f800ce
:1006900004002000a40188000000fa000002eb0022
:1006a0002440880024408000144088008680a900ef
:1006b0000080fa003400f9004f0278000040060084
:1006c0000200fa0014002000a44788006206070018
:1006d0000040eb008e060700c082a9000000000069
:1006e000c0a2a90000000000c122a9000000000073
:1006f000c142a90000000000c002a90000000000e3
:1007000024742000144278000414a0000483fb0029
:10071000640420007505200027742000844b7800b5
:10072000854b7800864b780005e1a9000421a800dc
:100730000441a900240880000440a1000450a10045
:10074000240888000002eb0004088800f4ff27005a
:10075000140888002405800004c0a00004d0a10073
:1007600004e0a100240588008460a9009460a8002a
:1007700005e1a80011e1a9001021a90010c1a900fc
:10078000840880000440a0000450a0008408880071
:100790000002eb003408880024032000640888006d
:1007a00084e0a90094e0a80011e1a80013e1a900e9
:1007b0001221a90012c1a900940880000440a100e0
:1007c0000450a100940888000002eb00540888003f
:1007d00014002000740888008500a9009500a80076
:1007e00013e1a800d902a800d342a8002a83a800d8
:1007f0009680a800740580000400a0000410a000ea
:100800000420a100740588008220a800047d200037
:10081000040f7800141680004a22de006142620054
:100820000404a200614262000482fb0061026200d3
:100830004a22dd0016168000f5bf2f0085026300f6
:10084000050272001416880000000000000000007d
:10085000047122009e027800848f520021003a0029
:1008600080c1b3002a0607000040eb000406070021
:1008700090c1b300260607000040eb000006070009
:10088000000000002640800015408000c4032000c6
:10089000110009008402d800010278008402780067
:1008a00017408000c4032000110009008403d80011
:1008b00000027800861f7800851f7800841f78006a
:1008c000c4012900841f7800a8010700e8875700a9
:1008d000c08d2000ac0107000002eb00040f78007f
:1008e000000000001e0fe800caff37000040da00d9
:1008f0000000fe0000c0da00000006000a00fa0056
:10090000e20f500022003e00a4478000e10f520099
:1009100006003200872320004623200024232000e5
:1009200005232000e08f530004003a0087222000b6
:10093000462220002422200005222000000028005a
:100940001500600003003a00800b780007002800c3
:10095000958a7300054020009482620001003a00ed
:1009600014a0a000820278000600370094037800eb
:100970000710b200fdff3200b103fb00070b780047
:100980008502e900e08f5200f8ff3a0008003700c6
:1009900034002000c0bf9f00e2bf9f00b4bf9f0093
:1009a000d1bf9f006a805700d2ff07006fb9970040
:1009b000020078000080fa0000000600889fbe0058
:1009c0008a9fbe003004be002005be00040444001f
:1009d00085844c0006054d0087854d000898be00b3
:1009e0000a90be000440e10005c8e10006d0e10025
:1009f00007d8e10002003100680040001008e8005c
:100a00004f05be004f04be00000006001000fa00b3
:100a1000889fbe008a9fbe00110020000605be0010
:100a20000404be003002be002003be00c4b79f0015
:100a3000d5b79f00e6b79f00f7b79f0008025200a6
:100a400089825a000a035b008b835b0084bf9f008e
:100a500095bf9f00a6bf9f00b7bf9f000498be0030
:100a60000698be004fb29700dfb297006fb39700b1
:100a7000ffb39700b0000700010039008000eb00d1
:100a80004f05be00108810004f04be000080fa0021
:100a9000000006001400fa00889fbe008a9fbe0076
:100aa0008c9fbe000006eb0079000700ccb79f00ca
:100ab000bcb79f00acb79f009cb79f008cb79f004e
:100ac0000605be000404be000d0420004fb39700cd
:100ad000bfb29700860343002fb29700e00f530088
:100ae00004003d00990007000f004000b3ff07001d
:100af00003003700950007000f004000c3ff070008
:100b0000cfb2970095bf9f00e08f520009003500db
:100b10006600070014002000050020006033b800c4
:100b200000007200818072000201730083817300f3
:100b3000570007000c06e8008d0f5600e3ff3a004f
:100b40001fba9700e00f520005003d000802be00ea
:100b50000a03be0000fe2f000f00400097ff0700b1
:100b60004faa9700e00f520008003a000fb4970018
:100b70009fb497002fb59700bfb59700d8b79f00d7
:100b8000e9b79f00fab79f008bbf9f00470007009f
:100b90004f06be004f05be004f04be000080fa00a5
:100ba00000000600881f780018002000881f7800c9
:100bb000b8ff07008f87e9004f04780000000600a7
:100bc000801feb00b3ff07008f87e90000000600dd
:100bd000889fbe008a9fbe004100070008003d00bc
:100be0007a000700430007001800200046000700b5
:100bf00008003d002f0007000004eb00050037004f
:100c00000004eb004000070002003d00290007003f
:100c100018002000e3ff0700e00f5400010032003d
:100c20003e0007004f05be004f04be000000060056
:100c3000889fbe008a9fbe008c1f78002800070096
:100c400006003d00610007001c002000290007008d
:100c50003900070006003d00040037000006eb00e5
:100c60002900070002003d0058000700120007009d
:100c7000d3ff0700e00f56000100320027000700f5
:100c80004f0678004f05be004f04be00000006006e
:100c9000010007000000060090b79f00a1b79f0069
:100ca000b2b79f00c3b79f0000000600070007000f
:100cb00000000600450007000402540085825c0025
:100cc00006035d0087835d00000006001fb09700eb
:100cd000afb097003fb19700cfb19700000006007a
:100ce000e00f5000e08f5800e00f5900e08f5900ee
:100cf000000006000000540081805c0002015d00dd
:100d000083815d0000000600e00f5200e08f5a0072
:100d1000e00f5b00e08f5b00000006006022b8007f
:100d20006033b8000000520081805a0002015b006d
:100d300083815b00000006000820e10009a8e100b3
:100d40000ab0e1000bb8e100000006004f2bde0006
:100d5000deff070086837300858242004f23de009a
:100d6000a7b79f00868272000402420095b79f00d9
:100d7000ffaa97004f2bde00858242000602720018
:100d800084b79f006faa97004f23de000402420041
:100d900086827200f5af9f004f18de0000027200dd
:100da000caff0700e4af9f000000400081804800b8
:100db00002014900838149000802be000a03be0007
:100dc000b5ff070000fe2f00000006006044b800d9
:100dd0006055b80000000600889fbe008a9fbe00d4
:100de0008c1f78000006eb00e00f5000e08f5800e9
:100df000e00f5900e08f590007003d006044b80043
:100e00006055b8001c0020000000540081805c0088
:100e100002015d0083815d00e00f5200e08f5a0007
:100e2000e00f5b00e08f5b0007003d006044b8000e
:100e30006055b8000c00a2000402540085825c00da
:100e400006035d0087835d0022000700e00f560067
:100e5000060032006022b8006033b8000000520083
:100e600081805a0002015b0083815b004f0678009d
:100e70004f05be004f04be00000006006022b8000f
:100e8000060220000000d0008180d2000482d2003f
:100e90008582d2000000a0000202520083825a0024
:100ea000030031000202420083824a000000a100d8
:100eb0000603e900f3ff3a0000000600020ab90049
:100ec000001bb9000200b80081004200810043000d
:100ed00000000600889fbe008a9fbe008c9fbe0057
:100ee0000404b8000506b8008904460060854e0079
:100ef0000606b8000a054600e0854e000706b80061
:100f00008b054600040eb800890446000a854e0091
:100f1000e0854d00050eb8000a0546008b854e00a1
:100f2000060eb8008b0546000416b8000a054600f8
:100f30008b854e000516b8008b054600041eb800d0
:100f40008b0546000800be000a01be004f06be0029
:100f50004f05be004f04be0000000600421188008d
:100f6000001188001111880000000600c08d2000cb
:100f70000000fa0068815700cfb897002c000700e6
:100f80000080fa0000000600881f78000004780046
:100f900038009000000278001420b200e10f5200e7
:100fa00005003a000002eb001404980028029000ab
:100fb000040c7800190037008002780024202000fb
:100fc0002520b2000000eb00848f520016003a008a
:100fd000a8009000808f500013003200180190008c
:100fe000800f5100100032004800900043fe0700bf
:100ff00018029000840f5000030032003802900065
:101000000403b30034049800380090000002eb00a1
:101010001404980028029000040c78000002b2002a
:10102000010032000080eb004f0478000000060051
:10103000ef03b000889fbe008a9fbe008c9fbe0059
:10104000800678008e1f78000007eb00d1af9f006c
:10105000a2b79f0066033700dfa8970054c2b30011
:101060008100e800d1af9f00844f500006003a0095
:10107000010278000006eb0001c3b30000c2b30018
:10108000b7c2b3000e0037003d0290000404b20066
:10109000040032001d027800004a7800840ee80047
:1010a000050037000000fb008d0078005c0307009e
:1010b000e10f40004e0332000e07e8004c033700fa
:1010c00084027800d2c2b30034437800824f5300c8
:1010d0000900320005003c00804f53000800320038
:1010e000874f53000c003a0007003700814f530030
:1010f00009003a00060037000c30a000f0ff37006e
:101100000c00a000eeff37000c10a000ecff370031
:101110000c20a000eaff37006202660001003200e6
:101120000c00a10068026600010032000c20a10042
:101130000602fb000403b100e90f52000c003e0060
:10114000050378000002eb00b603fb006a22b90039
:101150000703b10086027800048243009603fb0077
:101160000703b100e98f5300f7ff3600080037008e
:101170000002eb00a7c2b300874f530004003a00ff
:10118000afb197008502e80043027800a3b79f0043
:101190000003eb0096b79f00e6c2b300954f130023
:1011a0000c003a000ce0a00064435300d54f13003c
:1011b00003003200050378000000eb00090037004f
:1011c000afb397008502e80047047800a7b79f00f7
:1011d00098b79f0005037800090037006a00b9003e
:1011e0000080430086027800b603fb000703b100cd
:1011f000e98f5300f9ff360090b79f00f5ff3700e5
:10120000b6427800cac6b300d6af9f008acf52005c
:10121000250032000f003c0036c6b30086cf5200d6
:101220009e00320004003c00e0cf5200f502320084
:101230006b4353000f00370046c6b30086cf520001
:10124000170032006543430086cf5200b2003a00d7
:101250001300370036c7b30086cf52001f0032009c
:1012600007003c006443530086cf52001400320054
:101270000643e80086cf5200a7003a00130037006b
:1012800056c7b30086cf5200aa0032006343430022
:1012900086cf5200a0003a00e5779f000d0037008e
:1012a000e5779f00a5003700f003660005012000e8
:1012b00001003200050028000c867200d0ff3700c4
:1012c000e5779f000c60a0009c003700e5779f0049
:1012d0000c50a0000c70a00098003700afb597002c
:1012e000e5779f00cb027800abb79f00b5b79f00b2
:1012f000e08f520002003a00818c2000b1b79f00bd
:101300003fb397008002eb00010037008502e80040
:10131000e6c37a00e0cf5300fcff3a00c5b79f0058
:101320001fb19700e00f510005003200cfb19700c8
:10133000830f51000200310082027800c5b79f0080
:10134000cfb297000004eb00850f52000100360079
:10135000050452006806660009c2b3000f0032009f
:10136000290037003d0290000404b200040032005e
:101370001d027800094a7800840ee8000500370055
:101380008d00780000022000a5020700e10f400058
:10139000010032000e07e8000804e900e00f5400e5
:1013a000f0ff3a000084eb0017003700bd02900008
:1013b0000504b20009003200880278009d0378001d
:1013c00035437800864b780005047800870ee800e6
:1013d000e04f53000a003a001100370088027800fd
:1013e0008d0078003500fb0084bf9f000504780065
:1013f0008b0207000fba9700e10f4000080032008f
:101400000e07e800060037000c0278000806780096
:101410003fb49700cfb497005fb59700efb5970042
:10142000890278008504e900e08f5200dfff3a006e
:10143000b8b79f00c9b79f00dab79f00ebb79f000e
:101440000c04780009c2b30004067800e00f5600cf
:101450000f003a00660237003d0290000404b2001b
:10146000040032001d027800094a7800840ee8006a
:10147000050037008d007800000220006802070098
:10148000e10f4000010032000e07e8000804e90007
:10149000e00f5400f0ff3a0055023700afb097005c
:1014a0007003660041047800a1b79f00cfc4de003e
:1014b000090578008a0578000800be000a01be0010
:1014c0004800de00c80add0000807200e0779f005f
:1014d000e00f530009003200e04f500007003200d7
:1014e000e14f40000500320026002000f0779f0009
:1014f000887f9f00c6b79f000300370017002000b9
:10150000c7b79f00f8779f0078fb2f00088447003b
:10151000b8b79f0082ff370069fb2f001a00200038
:1015200089844700e5779f00b9b79f00cab79f003d
:101530007bff3700e5779f000c0cb3008c0278002e
:10154000050cb2003b003a00e00f560005003d00dc
:10155000afb297004501be004500be00a5b79f0091
:101560000f003700f0026600120032002fb497001f
:101570004803be00f69f9f0087a79f00a8b79f0063
:1015800098029000cfaade0095a79f00a5a79f0014
:101590007f9897008fa097001fa19700afa1970099
:1015a000b0b79f00c1b79f00d2b79f00e3b79f00bd
:1015b0000b003700afb09700c10278000504780037
:1015c000cfc4de00090578008a057800a1b79f0026
:1015d000b8b79f00c9b79f00dab79f00ebb79f006d
:1015e0003fb09700cfb097005fb19700efb1970081
:1015f000e00f5000e08f5800e00f5900e08f5900d5
:1016000032003d006000b8006011b8003fb49700a0
:10161000cfb497005fb59700efb597003c00b300db
:1016200008045000898458000a0559008b85590028
:1016300022003700e00f560005003d00afb29700d2
:101640004501be004500be00a5b79f000f00370052
:10165000f0026600120032002fb497008004eb0005
:101660004803be000005eb0096af9f00a7af9f00a8
:10167000b9af9f00caaf9f001fa89700afa89700ff
:101680003fa99700cfa99700a8b79f00b0b79f00c8
:10169000c1b79f00d2b79f00e3b79f000b00370090
:1016a000afb09700c1027800a1b79f000504780091
:1016b000090020000a0020000b002000b8b79f009e
:1016c000c9b79f00dab79f00ebb79f009fb49700a0
:1016d000e08f54000d003a001a0020003fb0970040
:1016e000cfb097005fb19700efb197009ab79f0016
:1016f000e00f5000e08f5800e00f5900e08f5900d4
:10170000020032008000eb0091b79f000c017800ce
:1017100005042000020cb20082b79f00850f510023
:101720003400320003003c00e00f5100080032009a
:1017300048003700050820008fb19700858f5100c1
:1017400014003200050c2000858f510041003a0042
:10175000e680200015c0b3003600be003601be0092
:101760003fb49700cfb497005fb59700efb59700ef
:101770000040e10001c8e10002d0e10003d8e1002f
:10178000330039008542e800f4cf5200f2ff3a00fe
:101790002f00370015c0b300000120000100200019
:1017a0006011b8003fb49700cfb497005fb59700c1
:1017b000efb597000040e10001c8e10002d0e10070
:1017c00003d8e10022003900490020000000d000c9
:1017d0008180d2000281d2008381d2008904e90095
:1017e000faff3a008542e800f0cf5200edff3a00e0
:1017f0001700370015c0b300800020000100200052
:101800006011b8003fb49700cfb497005fb5970060
:10181000efb597000040e10001c8e10002d0e1000f
:1018200003d8e1000a003900390020000000d00090
:101830008180d2000281d2008381d2008904e90034
:10184000faff3a008542e800f5cf5200edff3a007a
:10185000e5779f006f7597009fb597008a02fb00a0
:101860008b8f520002003d00eb779f000400370091
:101870001fb09700850f500001003d0095b79f00f5
:10188000e00f520003003200e30266000100320064
:101890000402e9000500240085026600060032000b
:1018a0009fb09700810f52000200340001025200e5
:1018b000010037000002eb006f7197008001eb0020
:1018c0008202fb00f3af9f00850f5200020034003c
:1018d00085025200f5af9f00640266003b003200b3
:1018e000e202660061026600e08f520011003200e1
:1018f000bd0290000504b200080032009d0278008d
:10190000b6c2b300e00f52000100320006c3e80087
:10191000864a7800850ee80015003700b0022000e6
:10192000e00f5200010032000080e8008d007800d6
:101930000c003700e00f52000e0032003d02900014
:101940000404b200050032001d02780005c2b30095
:10195000054a7800840ee800050037008d00780005
:10196000000220002e010700e10f400001003200bc
:101970000e07e8007faa9700e00f52004f003200e8
:1019800008c3b300840478003d0290000404b20050
:10199000040032001d027800084a7800840ee80036
:1019a000050037008d007800000320001c010700af
:1019b000e10f4000010032000e07e8008904e90051
:1019c000f1ff3a00f9af9f003c003700ffaa9700f3
:1019d000e08f5200140032006802660012003a00e4
:1019e00008c2b300850478003d0290000404b200f0
:1019f000040032001d027800084a7800840ee800d6
:101a0000050037008d007800000220000401070067
:101a1000e10f4000010032000e07e8008904e900f0
:101a2000f1ff3a00f9af9f00e20266006102660032
:101a3000e08f520011003200bd0290000504b20098
:101a4000080032009d027800b6c2b300e00f5200d9
:101a50000100320006c3e800864a7800850ee800df
:101a600015003700b0022000e00f520001003200e4
:101a70000080e8008d0078000c003700e00f520075
:101a80000e0032003d0290000404b2000500320056
:101a90001d02780005c2b300054a7800840ee800f4
:101aa000050037008d00780000022000dc000700f0
:101ab000e10f4000010032000e07e8001fb397005d
:101ac000658020000602e900f0046600c223dd0004
:101ad0000c057800c7a79f000a02b2006323b90073
:101ae000e99f9f00060478004322dd00b8a79f000d
:101af00085024200da9f9f00e5af9f00a3003700f8
:101b00009fb597000fb097008b05e90001042000f6
:101b10009bb79f00810f50007300320003003c0010
:101b2000e00f5000080032007e003700040820005b
:101b30000fb19700840f510056003200040c2000b2
:101b4000840f510077003a00e00f56001f003d005f
:101b5000efa997003304be002305be003fb09700f5
:101b6000cfb097005fb19700efb197000802be00b9
:101b70000a03be000bfc07000802be000a03be00f9
:101b8000e0779f000000fb00cf80de0001017800bd
:101b90008201780090fc07003fb29700cfb2970017
:101ba0005fb39700efb397000002520081825a00a2
:101bb00002035b0083835b00b4b79f00c5b79f003f
:101bc000d6b79f00e7b79f002e003700ef9a970027
:101bd000e08f5200220032006fab97003fb29700b7
:101be000cfb297003604be002605be000400be003a
:101bf0000801be0084bf9f00f5b79f000005eb0001
:101c00009efc07000801be00e0779f000000fb007b
:101c1000cf80de00a9fc07000fba9700ffb2970043
:101c20008aaf9f000004520081845a00d8a79f0009
:101c3000e9a79f008004eb00f9a79f005fa0970031
:101c4000efa097007fa197008fa99700b0b79f00e2
:101c5000c1b79f00d2b79f00e3b79f0009003700cc
:101c6000efa897003fb1970011027800110009001a
:101c70000481d800a4002000110009000480d800cd
:101c8000e1779f00ef7197000343b000e3779f0077
:101c900024003700748b2000df9a9700e08f5200f9
:101ca00001003200648a20003fb09700cfb0970057
:101cb0005fb19700efb197004fa397000603e900cb
:101cc000050033008301d1000281d3008180d3005d
:101cd0000080d300f9ff37006f0060006440780097
:101ce000e0779f000f0037003fb29700cfb2970018
:101cf0005fb39700efb397003fa497000804e90093
:101d0000050033008703d1000683d3008582d3000a
:101d10000482d300f9ff3700674262000443b00039
:101d2000e4779f003d0290000404b20007003200f7
:101d30009d0278006f729700844a7800850ee80053
:101d4000e04f520007003a0007003700ef74970099
:101d50008d0078000900fb0031000700e10f400012
:101d6000010032000e07e8004fa59700bfa59700bd
:101d70006fa8970064055500e38555006800500082
:101d8000caa79f00bba79f00e0af9f009fb097002e
:101d9000e08f50005aff3a006806660014003200d7
:101da0007fa99700e00f51001100340008c2b30072
:101db000820478003d0290000404b2000400320066
:101dc0001d027800084a7800840ee80005003700fc
:101dd0008d0078000002200011000700e10f400094
:101de000010032000e07e8008904e900f1ff3a0023
:101df000dfa9970013407800e0779f00e04f500084
:101e000095fc3a000e0078004f0778004f06be00a0
:101e10004f05be004f04be00ef03b10000000600f6
:101e2000889fbe00010478008084eb003802900097
:101e3000e20262003b003200040378009802900046
:101e40000620b20002003a00e08f520035003a004e
:101e50000490a0008004780034049800f90fb200c8
:101e6000e08f520002003a00a8029000050c7800b2
:101e7000ea8f540005003a000408b20003003a005b
:101e800088007800d0002000e5ff070018029000cd
:101e9000d8029000850f52000b0032000402e800c7
:101ea00015c0b3001404980018027800094a78009d
:101eb000040ce800848f2000054a7800ea8f540063
:101ec00018003a00050037000940780088007800c3
:101ed00017000700800478001200370038029000d5
:101ee0000410b2000f00320018019000a80090000a
:101ef0004800900081fa070018029000840f5000fb
:101f000004003200380290000403b3003404980047
:101f10008084eb000002eb0014049800280290007b
:101f2000040c7800090078004f04be000000060091
:101f30000200fa00889fbe0001047800a0ff9f0005
:101f400038029000840278000504b20002003200da
:101f50000000fb0035003700e202620005003a0095
:101f60000403b30015049800340498000080eb00cb
:101f70002e003700d8049000e08f540006003a008d
:101f800012002000e6805700480090005bfa07002e
:101f90001904980023003700a8029000e08f520037
:101fa00008003a00c58f20000430a00025049800e6
:101fb000050c780034049800250020005504980092
:101fc0001504980018019000a800900048009000a7
:101fd0004afa0700280290008082eb00150498005e
:101fe000affa9700054a7800040ce8002ffa970032
:101ff000ea4f52000b003a00380290000410b20081
:102000000800320018019000a800900048009000dd
:102010003afa07000002eb00a802900014049800ae
:10202000050c78002ffa97000400fb004f04be0057
:082030000080fa000000060028
:020000040000fa
:10203800252e0000326400003a2500002e320000f0
:10204800642e0000252e000033640000000000000c
:020000040000fa
:102058000000fa0062002000014020000000280073
:10206800bcfb070000802e003100200000f90700ab
:102078000080fa00000006000200fa00004f780015
:10208800010037000000000023c2bf00624060006a
:102098000004e000fbff3a001e80fb0020118800ce
:1020a800010037000000000023c2bf00614060004b
:1020b8000004e000fbff32000080fa000000060088
:1020c8000600fa0010079800414798000040eb000e
:1020d800004f7800070037001e80fb008000780062
:1020e8001e0090000080400010407800e2ff0700ca
:1020f8001e4fe8004e4090009e4f1000f6ff39003a
:102108000080fa00000006000200fa00004f780084
:10211800c0c7b300d8ff07001e407800d6ff0700ed
:102128000080fa00000006000000fa00c0c7b300f3
:10213800d1ff07000040eb00cfff07000080fa0046
:10214800000006000200fa00000f7800c0c7b300c4
:10215800c9ff070010c0b300c7ff07001e007800c2
:10216800c5ff07000080fa00000006000200fa0020
:10217800000f7800c0c7b300bfff070020c0b3003e
:10218800bdff07001e007800bbff07000080fa00b3
:10219800000006000800fa00000f780011079800f8
:1021a8002207980033079800c0c7b300b2ff0700a2
:1021b80030c0b300b0ff07001e007800aeff070074
:1021c8001e009000acff07002e009000aaff070039
:1021d8003e009000a8ff07000080fa0000000600fb
:1021e8000000fa00c0c7b300a3ff070040c0b30057
:1021f800a1ff07000080fa00000006000800fa00ae
:10220800000f7800110798002207980033079800fc
:10221800c0c7b30098ff070050c0b30096ff07007f
:102228001e00780094ff07001e00900092ff070030
:102238002e00900090ff07003e0090008eff0700e0
:102248000080fa00000006000000fa00c0c7b300d2
:1022580089ff070060c0b30087ff07000080fa000d
:10226800000006000200fa00000f78001e00e000df
:1022780002003c0010002000000f780060002000e1
:102288009e0f10000200340060002000000f78004c
:10229800c0c7b30078ff070070c0b30076ff07001f
:1022a8001e00780074ff07000080fa000000060096
:1022b8000000fa00c0c7b3006fff070080c0b3007a
:1022c8006dff07000080fa00000006000200fa0017
:1022d800000f7800c0c7b30067ff0700a0c0b300b5
:1022e80065ff07001e00780063ff07000080fa0002
:1022f800000006000800fa00000f78001107980097
:102308002207980033079800c0c7b3005aff070098
:10231800b0c0b30058ff07001e00780056ff070042
:102328001e00900054ff07002e00900052ff070087
:102338003e00900050ff07000080fa0000000600f1
:102348000a00fa00000f7800110798002207980089
:102358003307980044079800c0c7b30046ff07003a
:10236800c0c0b30044ff07001e00780042ff07000a
:102378001e00900040ff07002e0090003eff07005f
:102388003e0090003cff07004e0090003aff070017
:102398000080fa00000006000a00fa001007980002
:1023a800210798003207980043079800c0c7b30078
:1023b80031ff0700d0c0b3002fff07001e009000b8
:1023c8002dff07002e0090002bff07003e00900015
:1023d80029ff07000000eb00000f78000700370016
:1023e8001e007800800078004e00900000804000b9
:1023f8001040780020ff07001e0fe800f0012000c1
:102408009e0f1000f6ff34000080fa00000006005e
:102418000a00fa00000f78001107980022079800b8
:102428003307980044079800c0c7b30012ff07009d
:10243800f0c0b30010ff07001e0078000eff070071
:102448001e0090000cff07002e0090000aff0700f6
:102458003e00900008ff07004e00900006ff0700ae
:102468000080fa00000006000600fa00000f78005d
:102478001107980022079800c0c7b300fefe0700a6
:1024880000c1b300fcfe0700000820009e0f1000ea
:102498000300340000c8b300f7fe07000700370048
:1024a8001e00e00003003d000040eb00f2fe0700c4
:1024b800020037001e007800effe07009e00900023
:1024c80000042000808f50000300340000c4b300d3
:1024d800e9fe0700080037001e0090000000e00039
:1024e80003003d000040eb00e3fe07000200370058
:1024f8001e009000e0fe07002e009000e10f500043
:10250800060032002e0090000000e00003003200b8
:1025180010c0b300d8fe0700020037002e0090005c
:10252800d5fe07000080fa00000006000a00fa0045
:10253800000f7800110798002207980033079800c9
:10254800044f9800c0c7b300cbfe070020c1b300fa
:10255800c9fe07001e007800c7fe07001e00900095
:10256800c5fe07002e009000c3fe07003e00900045
:10257800c1fe07000e489000bffe07000080fa0069
:10258800000006000000fa00c0c7b300bafe07004a
:1025980040c1b300b8fe07000080fa000000060042
:1025a8000000fa00c0c7b300b3fe070050c1b30073
:1025b800b1fe07000080fa00000006000e00fa00d5
:1025c80010079800210798003207980043079800e1
:1025d8005407980065079800c0c7b300a6fe070017
:1025e80060c1b300a4fe07001e009000a2fe070011
:1025f8002e009000a0fe07003e0090009efe0700ff
:102608004e0090009cfe07005e0090009afe0700b6
:10261800ce0090005e0090000088b9008200200083
:10262800110009000200d800000f78000000eb003c
:1026380010079800090037001e00900080007800fd
:102648006e00900000804000104078008afe07006d
:102658001e0090000000e800100798001e0090007f
:102668009e0f5000f4ff35000080fa0000000600bd
:102678000400fa00000f780011079800c0c7b300e3
:102688007dfe070080c1b3007bfe07001e007800b6
:1026980079fe0700c0c7b30077fe070090c1b300fa
:1026a80075fe07001e00900073fe07000080fa0008
:1026b800000006000400fa00100798001e009000b1
:1026c800e80f500003003400800020001007980035
:1026d8000c0037001e0090000000e00003003c00e2
:1026e8001000200010079800060037001e00900018
:1026f8004300dd00680f50009e00780010002000a5
:0c270800dbff07000080fa000000060064
:020000040000fa
:10271400000800000600000000000000f4080000ab
:10272400020000000200000001000000d0080000c8
:102734002400000002000000fa08000000fa08006b
:102744000900000000020000fc08000000fc080072
:102754000e02010000000000000000000000000064
:102764000602020000000000f6080000020000005b
:1027740002000000d0080000f80800000200000079
:1027840000000000fa080000020000000000000041
:10279400fc0800000200000000000000a608000081
:1027a4002a000000020000003031320033343500ca
:1027b4003637380039414200434445004600300072
:1027c4003132330034353600373839006162630002
:1027d4006465660000286e00756c6c0029000000ba
:1027e40006080000a0000000020000000100000034
:1027f4000000000000000a000000000000000000cb
:10280400006400000000000000000000e803000075
:10281400000000000000100027000000000000007d
:1028240000a08600010000000000000040420f00ec
:1028340000000000000080009698000000000000e6
:102844000000e100f50500000000000000ca9a0045
:102854003b00000000000000e40b540002000000f4
:102864000000e80076481700000000000010a500f2
:10287400d4e8000000000000a0724e001809000017
:10288400000040007a10f3005a0000000080c600e7
:10289400a47e8d000300000000c16f00f2862300b7
:1028a400000000008a5d78004563010000006400b8
:1028b400a7b3b600e00d000000e889000423c700b8
:0828c4008a0000000000000082
:020000040000fa
:0200000401f009
:04000800ffff0000f6
:020000040000fa
:0200000401f009
:04000c00fbff0000f6
:020000040000fa
:0200000401f009
:04001000fdff0000f0
:020000040000fa
:0200000401f009
:040014007fff00006a
:00000001FF
